{
  "_format": "hh-sol-artifact-1",
  "contractName": "Casino",
  "sourceName": "src/backend/contracts/Casino.sol",
  "abi": [
    {
      "inputs": [],
      "stateMutability": "nonpayable",
      "type": "constructor"
    },
    {
      "anonymous": false,
      "inputs": [
        {
          "indexed": true,
          "internalType": "address",
          "name": "previousOwner",
          "type": "address"
        },
        {
          "indexed": true,
          "internalType": "address",
          "name": "newOwner",
          "type": "address"
        }
      ],
      "name": "OwnershipTransferred",
      "type": "event"
    },
    {
      "anonymous": false,
      "inputs": [
        {
          "indexed": false,
          "internalType": "uint256",
          "name": "NumberWin",
          "type": "uint256"
        },
        {
          "indexed": false,
          "internalType": "bool",
          "name": "result",
          "type": "bool"
        },
        {
          "indexed": false,
          "internalType": "uint256",
          "name": "tokensEarned",
          "type": "uint256"
        }
      ],
      "name": "RouletteGame",
      "type": "event"
    },
    {
      "inputs": [],
      "name": "balanceEthersSC",
      "outputs": [
        {
          "internalType": "uint256",
          "name": "",
          "type": "uint256"
        }
      ],
      "stateMutability": "view",
      "type": "function"
    },
    {
      "inputs": [
        {
          "internalType": "uint256",
          "name": "_numTokens",
          "type": "uint256"
        }
      ],
      "name": "compraTokens",
      "outputs": [],
      "stateMutability": "payable",
      "type": "function"
    },
    {
      "inputs": [
        {
          "internalType": "uint256",
          "name": "_numTokens",
          "type": "uint256"
        }
      ],
      "name": "devolverTokens",
      "outputs": [],
      "stateMutability": "payable",
      "type": "function"
    },
    {
      "inputs": [],
      "name": "getAdress",
      "outputs": [
        {
          "internalType": "address",
          "name": "",
          "type": "address"
        }
      ],
      "stateMutability": "view",
      "type": "function"
    },
    {
      "inputs": [
        {
          "internalType": "uint256",
          "name": "_start",
          "type": "uint256"
        },
        {
          "internalType": "uint256",
          "name": "_end",
          "type": "uint256"
        },
        {
          "internalType": "uint256",
          "name": "_tokensBet",
          "type": "uint256"
        }
      ],
      "name": "jugarRuleta",
      "outputs": [],
      "stateMutability": "nonpayable",
      "type": "function"
    },
    {
      "inputs": [],
      "name": "owner",
      "outputs": [
        {
          "internalType": "address",
          "name": "",
          "type": "address"
        }
      ],
      "stateMutability": "view",
      "type": "function"
    },
    {
      "inputs": [
        {
          "internalType": "uint256",
          "name": "_numTokens",
          "type": "uint256"
        }
      ],
      "name": "precioTokens",
      "outputs": [
        {
          "internalType": "uint256",
          "name": "",
          "type": "uint256"
        }
      ],
      "stateMutability": "pure",
      "type": "function"
    },
    {
      "inputs": [],
      "name": "renounceOwnership",
      "outputs": [],
      "stateMutability": "nonpayable",
      "type": "function"
    },
    {
      "inputs": [
        {
          "internalType": "uint256",
          "name": "_numEther",
          "type": "uint256"
        }
      ],
      "name": "retirarEth",
      "outputs": [],
      "stateMutability": "payable",
      "type": "function"
    },
    {
      "inputs": [],
      "name": "tokenAddress",
      "outputs": [
        {
          "internalType": "address",
          "name": "",
          "type": "address"
        }
      ],
      "stateMutability": "view",
      "type": "function"
    },
    {
      "inputs": [
        {
          "internalType": "address",
          "name": "_of",
          "type": "address"
        }
      ],
      "name": "tokenBalance",
      "outputs": [
        {
          "internalType": "uint256",
          "name": "",
          "type": "uint256"
        }
      ],
      "stateMutability": "view",
      "type": "function"
    },
    {
      "inputs": [
        {
          "internalType": "address",
          "name": "newOwner",
          "type": "address"
        }
      ],
      "name": "transferOwnership",
      "outputs": [],
      "stateMutability": "nonpayable",
      "type": "function"
    },
    {
      "inputs": [
        {
          "internalType": "address",
          "name": "_propietario",
          "type": "address"
        }
      ],
      "name": "tuHistorial",
      "outputs": [
        {
          "components": [
            {
              "internalType": "uint256",
              "name": "tokensBet",
              "type": "uint256"
            },
            {
              "internalType": "uint256",
              "name": "tokensEarned",
              "type": "uint256"
            },
            {
              "internalType": "string",
              "name": "game",
              "type": "string"
            }
          ],
          "internalType": "struct Casino.Bet[]",
          "name": "",
          "type": "tuple[]"
        }
      ],
      "stateMutability": "view",
      "type": "function"
    }
  ],
  "bytecode": "0x60806040523480156200001157600080fd5b506200003262000026620001c960201b60201c565b620001d160201b60201c565b604051620000409062000295565b6200004b9062000368565b604051809103906000f08015801562000068573d6000803e3d6000fd5b50600160006101000a81548173ffffffffffffffffffffffffffffffffffffffff021916908373ffffffffffffffffffffffffffffffffffffffff160217905550600160009054906101000a900473ffffffffffffffffffffffffffffffffffffffff16600260006101000a81548173ffffffffffffffffffffffffffffffffffffffff021916908373ffffffffffffffffffffffffffffffffffffffff160217905550600160009054906101000a900473ffffffffffffffffffffffffffffffffffffffff1673ffffffffffffffffffffffffffffffffffffffff1663a0712d68620f42406040518263ffffffff1660e01b81526004016200016c91906200034b565b602060405180830381600087803b1580156200018757600080fd5b505af11580156200019c573d6000803e3d6000fd5b505050506040513d601f19601f82011682018060405250810190620001c29190620002ba565b506200044b565b600033905090565b60008060009054906101000a900473ffffffffffffffffffffffffffffffffffffffff169050816000806101000a81548173ffffffffffffffffffffffffffffffffffffffff021916908373ffffffffffffffffffffffffffffffffffffffff1602179055508173ffffffffffffffffffffffffffffffffffffffff168173ffffffffffffffffffffffffffffffffffffffff167f8be0079c531659141344cd1fd0a4f28419497f9722a3daafe3b4186f6b6457e060405160405180910390a35050565b61125180620020ef83390190565b600081519050620002b48162000431565b92915050565b600060208284031215620002d357620002d2620003da565b5b6000620002e384828501620002a3565b91505092915050565b620002f781620003c6565b82525050565b60006200030c6006836200039f565b91506200031982620003df565b602082019050919050565b6000620003336003836200039f565b9150620003408262000408565b602082019050919050565b6000602082019050620003626000830184620002ec565b92915050565b600060408201905081810360008301526200038381620002fd565b90508181036020830152620003988162000324565b9050919050565b600082825260208201905092915050565b60008115159050919050565b6000819050919050565b6000620003d382620003bc565b9050919050565b600080fd5b7f436173696e6f0000000000000000000000000000000000000000000000000000600082015250565b7f4341530000000000000000000000000000000000000000000000000000000000600082015250565b6200043c81620003b0565b81146200044857600080fd5b50565b611c94806200045b6000396000f3fe6080604052600436106100c25760003560e01c80638da5cb5b1161007f578063c29dd7c911610059578063c29dd7c914610228578063df54096714610244578063eedc966a14610281578063f2fde38b146102be576100c2565b80638da5cb5b146101a75780639d76ea58146101d2578063b934c384146101fd576100c2565b806321a10444146100c75780632e95161c146100f05780633897b0bc1461010c5780635f375c6c146101285780636b37d36214610165578063715018a614610190575b600080fd5b3480156100d357600080fd5b506100ee60048036038101906100e9919061144d565b6102e7565b005b61010a600480360381019061010591906113f3565b610786565b005b610126600480360381019061012191906113f3565b6109ba565b005b34801561013457600080fd5b5061014f600480360381019061014a91906113f3565b610aa0565b60405161015c91906117e3565b60405180910390f35b34801561017157600080fd5b5061017a610abc565b60405161018791906116cf565b60405180910390f35b34801561019c57600080fd5b506101a5610ae6565b005b3480156101b357600080fd5b506101bc610afa565b6040516101c991906116cf565b60405180910390f35b3480156101de57600080fd5b506101e7610b23565b6040516101f491906116cf565b60405180910390f35b34801561020957600080fd5b50610212610b49565b60405161021f91906117e3565b60405180910390f35b610242600480360381019061023d91906113f3565b610b51565b005b34801561025057600080fd5b5061026b60048036038101906102669190611399565b610e1a565b6040516102789190611721565b60405180910390f35b34801561028d57600080fd5b506102a860048036038101906102a39190611399565b610f5e565b6040516102b591906117e3565b60405180910390f35b3480156102ca57600080fd5b506102e560048036038101906102e09190611399565b611012565b005b600160009054906101000a900473ffffffffffffffffffffffffffffffffffffffff1673ffffffffffffffffffffffffffffffffffffffff166370a08231336040518263ffffffff1660e01b815260040161034291906116cf565b60206040518083038186803b15801561035a57600080fd5b505afa15801561036e573d6000803e3d6000fd5b505050506040513d601f19601f820116820180604052508101906103929190611420565b81111561039e57600080fd5b600081116103ab57600080fd5b6000600e426040516020016103c091906116b4565b6040516020818303038152906040528051906020012060001c6103e391906119e0565b9050600080600160009054906101000a900473ffffffffffffffffffffffffffffffffffffffff1673ffffffffffffffffffffffffffffffffffffffff1663beabacc83330876040518463ffffffff1660e01b8152600401610447939291906116ea565b602060405180830381600087803b15801561046157600080fd5b505af1158015610475573d6000803e3d6000fd5b505050506040513d601f19601f8201168201806040525081019061049991906113c6565b508483111580156104aa5750858310155b15610702576001905060008314156104d057600e846104c9919061189b565b91506104e0565b6002846104dd919061189b565b91505b81600160009054906101000a900473ffffffffffffffffffffffffffffffffffffffff1673ffffffffffffffffffffffffffffffffffffffff166370a08231306040518263ffffffff1660e01b815260040161053c91906116cf565b60206040518083038186803b15801561055457600080fd5b505afa158015610568573d6000803e3d6000fd5b505050506040513d601f19601f8201168201806040525081019061058c9190611420565b101561064f57600160009054906101000a900473ffffffffffffffffffffffffffffffffffffffff1673ffffffffffffffffffffffffffffffffffffffff1663a0712d68620186a0846105df919061189b565b6040518263ffffffff1660e01b81526004016105fb91906117e3565b602060405180830381600087803b15801561061557600080fd5b505af1158015610629573d6000803e3d6000fd5b505050506040513d601f19601f8201168201806040525081019061064d91906113c6565b505b600160009054906101000a900473ffffffffffffffffffffffffffffffffffffffff1673ffffffffffffffffffffffffffffffffffffffff1663beabacc83033856040518463ffffffff1660e01b81526004016106ae939291906116ea565b602060405180830381600087803b1580156106c857600080fd5b505af11580156106dc573d6000803e3d6000fd5b505050506040513d601f19601f8201168201806040525081019061070091906113c6565b505b6107436040518060400160405280600781526020017f526f756c65746500000000000000000000000000000000000000000000000000815250858433611096565b7fd25d6b7f2fbc40564b21f40e1d506ff3d5276071da39d3def6b88f6ee8a39659838284604051610776939291906117fe565b60405180910390a1505050505050565b600081116107c9576040517f08c379a00000000000000000000000000000000000000000000000000000000081526004016107c090611763565b60405180910390fd5b600160009054906101000a900473ffffffffffffffffffffffffffffffffffffffff1673ffffffffffffffffffffffffffffffffffffffff166370a08231336040518263ffffffff1660e01b815260040161082491906116cf565b60206040518083038186803b15801561083c57600080fd5b505afa158015610850573d6000803e3d6000fd5b505050506040513d601f19601f820116820180604052508101906108749190611420565b8111156108b6576040517f08c379a00000000000000000000000000000000000000000000000000000000081526004016108ad906117c3565b60405180910390fd5b600160009054906101000a900473ffffffffffffffffffffffffffffffffffffffff1673ffffffffffffffffffffffffffffffffffffffff1663beabacc83330846040518463ffffffff1660e01b8152600401610915939291906116ea565b602060405180830381600087803b15801561092f57600080fd5b505af1158015610943573d6000803e3d6000fd5b505050506040513d601f19601f8201168201806040525081019061096791906113c6565b503373ffffffffffffffffffffffffffffffffffffffff166108fc61098b83610aa0565b9081150290604051600060405180830381858888f193505050501580156109b6573d6000803e3d6000fd5b5050565b6109c2611158565b60008111610a05576040517f08c379a00000000000000000000000000000000000000000000000000000000081526004016109fc90611763565b60405180910390fd5b610a0d610b49565b811115610a4f576040517f08c379a0000000000000000000000000000000000000000000000000000000008152600401610a46906117c3565b60405180910390fd5b610a57610afa565b73ffffffffffffffffffffffffffffffffffffffff166108fc829081150290604051600060405180830381858888f19350505050158015610a9c573d6000803e3d6000fd5b5050565b600066038d7ea4c6800082610ab5919061189b565b9050919050565b6000600160009054906101000a900473ffffffffffffffffffffffffffffffffffffffff16905090565b610aee611158565b610af860006111d6565b565b60008060009054906101000a900473ffffffffffffffffffffffffffffffffffffffff16905090565b600260009054906101000a900473ffffffffffffffffffffffffffffffffffffffff1681565b600047905090565b610b5a81610aa0565b341015610b9c576040517f08c379a0000000000000000000000000000000000000000000000000000000008152600401610b93906117a3565b60405180910390fd5b80600160009054906101000a900473ffffffffffffffffffffffffffffffffffffffff1673ffffffffffffffffffffffffffffffffffffffff166370a08231306040518263ffffffff1660e01b8152600401610bf891906116cf565b60206040518083038186803b158015610c1057600080fd5b505afa158015610c24573d6000803e3d6000fd5b505050506040513d601f19601f82011682018060405250810190610c489190611420565b1015610d0b57600160009054906101000a900473ffffffffffffffffffffffffffffffffffffffff1673ffffffffffffffffffffffffffffffffffffffff1663a0712d68620186a083610c9b919061189b565b6040518263ffffffff1660e01b8152600401610cb791906117e3565b602060405180830381600087803b158015610cd157600080fd5b505af1158015610ce5573d6000803e3d6000fd5b505050506040513d601f19601f82011682018060405250810190610d0991906113c6565b505b3373ffffffffffffffffffffffffffffffffffffffff166108fc610d2e83610aa0565b34610d3991906118f5565b9081150290604051600060405180830381858888f19350505050158015610d64573d6000803e3d6000fd5b50600160009054906101000a900473ffffffffffffffffffffffffffffffffffffffff1673ffffffffffffffffffffffffffffffffffffffff1663beabacc83033846040518463ffffffff1660e01b8152600401610dc4939291906116ea565b602060405180830381600087803b158015610dde57600080fd5b505af1158015610df2573d6000803e3d6000fd5b505050506040513d601f19601f82011682018060405250810190610e1691906113c6565b5050565b6060600360008373ffffffffffffffffffffffffffffffffffffffff1673ffffffffffffffffffffffffffffffffffffffff168152602001908152602001600020805480602002602001604051908101604052809291908181526020016000905b82821015610f5357838290600052602060002090600302016040518060600160405290816000820154815260200160018201548152602001600282018054610ec2906119a4565b80601f0160208091040260200160405190810160405280929190818152602001828054610eee906119a4565b8015610f3b5780601f10610f1057610100808354040283529160200191610f3b565b820191906000526020600020905b815481529060010190602001808311610f1e57829003601f168201915b50505050508152505081526020019060010190610e7b565b505050509050919050565b6000600160009054906101000a900473ffffffffffffffffffffffffffffffffffffffff1673ffffffffffffffffffffffffffffffffffffffff166370a08231836040518263ffffffff1660e01b8152600401610fbb91906116cf565b60206040518083038186803b158015610fd357600080fd5b505afa158015610fe7573d6000803e3d6000fd5b505050506040513d601f19601f8201168201806040525081019061100b9190611420565b9050919050565b61101a611158565b600073ffffffffffffffffffffffffffffffffffffffff168173ffffffffffffffffffffffffffffffffffffffff16141561108a576040517f08c379a000000000000000000000000000000000000000000000000000000000815260040161108190611743565b60405180910390fd5b611093816111d6565b50565b60006040518060600160405280858152602001848152602001868152509050600360008373ffffffffffffffffffffffffffffffffffffffff1673ffffffffffffffffffffffffffffffffffffffff1681526020019081526020016000208190806001815401808255809150506001900390600052602060002090600302016000909190919091506000820151816000015560208201518160010155604082015181600201908051906020019061114e9291906112a2565b5050505050505050565b61116061129a565b73ffffffffffffffffffffffffffffffffffffffff1661117e610afa565b73ffffffffffffffffffffffffffffffffffffffff16146111d4576040517f08c379a00000000000000000000000000000000000000000000000000000000081526004016111cb90611783565b60405180910390fd5b565b60008060009054906101000a900473ffffffffffffffffffffffffffffffffffffffff169050816000806101000a81548173ffffffffffffffffffffffffffffffffffffffff021916908373ffffffffffffffffffffffffffffffffffffffff1602179055508173ffffffffffffffffffffffffffffffffffffffff168173ffffffffffffffffffffffffffffffffffffffff167f8be0079c531659141344cd1fd0a4f28419497f9722a3daafe3b4186f6b6457e060405160405180910390a35050565b600033905090565b8280546112ae906119a4565b90600052602060002090601f0160209004810192826112d05760008555611317565b82601f106112e957805160ff1916838001178555611317565b82800160010185558215611317579182015b828111156113165782518255916020019190600101906112fb565b5b5090506113249190611328565b5090565b5b80821115611341576000816000905550600101611329565b5090565b60008135905061135481611c19565b92915050565b60008151905061136981611c30565b92915050565b60008135905061137e81611c47565b92915050565b60008151905061139381611c47565b92915050565b6000602082840312156113af576113ae611a9e565b5b60006113bd84828501611345565b91505092915050565b6000602082840312156113dc576113db611a9e565b5b60006113ea8482850161135a565b91505092915050565b60006020828403121561140957611408611a9e565b5b60006114178482850161136f565b91505092915050565b60006020828403121561143657611435611a9e565b5b600061144484828501611384565b91505092915050565b60008060006060848603121561146657611465611a9e565b5b60006114748682870161136f565b93505060206114858682870161136f565b92505060406114968682870161136f565b9150509250925092565b60006114ac838361162f565b905092915050565b6114bd81611929565b82525050565b60006114ce82611845565b6114d88185611868565b9350836020820285016114ea85611835565b8060005b85811015611526578484038952815161150785826114a0565b94506115128361185b565b925060208a019950506001810190506114ee565b50829750879550505050505092915050565b6115418161193b565b82525050565b600061155282611850565b61155c8185611879565b935061156c818560208601611971565b61157581611aa3565b840191505092915050565b600061158d60268361188a565b915061159882611ab4565b604082019050919050565b60006115b060308361188a565b91506115bb82611b03565b604082019050919050565b60006115d360208361188a565b91506115de82611b52565b602082019050919050565b60006115f660298361188a565b915061160182611b7b565b604082019050919050565b600061161960288361188a565b915061162482611bca565b604082019050919050565b6000606083016000830151611647600086018261167f565b50602083015161165a602086018261167f565b50604083015184820360408601526116728282611547565b9150508091505092915050565b61168881611967565b82525050565b61169781611967565b82525050565b6116ae6116a982611967565b6119d6565b82525050565b60006116c0828461169d565b60208201915081905092915050565b60006020820190506116e460008301846114b4565b92915050565b60006060820190506116ff60008301866114b4565b61170c60208301856114b4565b611719604083018461168e565b949350505050565b6000602082019050818103600083015261173b81846114c3565b905092915050565b6000602082019050818103600083015261175c81611580565b9050919050565b6000602082019050818103600083015261177c816115a3565b9050919050565b6000602082019050818103600083015261179c816115c6565b9050919050565b600060208201905081810360008301526117bc816115e9565b9050919050565b600060208201905081810360008301526117dc8161160c565b9050919050565b60006020820190506117f8600083018461168e565b92915050565b6000606082019050611813600083018661168e565b6118206020830185611538565b61182d604083018461168e565b949350505050565b6000819050602082019050919050565b600081519050919050565b600081519050919050565b6000602082019050919050565b600082825260208201905092915050565b600082825260208201905092915050565b600082825260208201905092915050565b60006118a682611967565b91506118b183611967565b9250817fffffffffffffffffffffffffffffffffffffffffffffffffffffffffffffffff04831182151516156118ea576118e9611a11565b5b828202905092915050565b600061190082611967565b915061190b83611967565b92508282101561191e5761191d611a11565b5b828203905092915050565b600061193482611947565b9050919050565b60008115159050919050565b600073ffffffffffffffffffffffffffffffffffffffff82169050919050565b6000819050919050565b60005b8381101561198f578082015181840152602081019050611974565b8381111561199e576000848401525b50505050565b600060028204905060018216806119bc57607f821691505b602082108114156119d0576119cf611a6f565b5b50919050565b6000819050919050565b60006119eb82611967565b91506119f683611967565b925082611a0657611a05611a40565b5b828206905092915050565b7f4e487b7100000000000000000000000000000000000000000000000000000000600052601160045260246000fd5b7f4e487b7100000000000000000000000000000000000000000000000000000000600052601260045260246000fd5b7f4e487b7100000000000000000000000000000000000000000000000000000000600052602260045260246000fd5b600080fd5b6000601f19601f8301169050919050565b7f4f776e61626c653a206e6577206f776e657220697320746865207a65726f206160008201527f6464726573730000000000000000000000000000000000000000000000000000602082015250565b7f4e6563657369746173206465766f6c76657220756e206e756d65726f2064652060008201527f746f6b656e73206d61796f722061203000000000000000000000000000000000602082015250565b7f4f776e61626c653a2063616c6c6572206973206e6f7420746865206f776e6572600082015250565b7f436f6d707261206d656e6f7320746f6b656e73206f207061676120636f6e206d60008201527f6173206574686572730000000000000000000000000000000000000000000000602082015250565b7f4e6f207469656e6573206c6f7320746f6b656e7320717565206465736561732060008201527f6465766f6c766572000000000000000000000000000000000000000000000000602082015250565b611c2281611929565b8114611c2d57600080fd5b50565b611c398161193b565b8114611c4457600080fd5b50565b611c5081611967565b8114611c5b57600080fd5b5056fea2646970667358221220a6daf1f518e64d74d12e9d426f02bf0101cd35c104116cf339162ba383aadefb64736f6c6343000807003360806040523480156200001157600080fd5b5060405162001251380380620012518339818101604052810190620000379190620001e0565b81600290805190602001906200004f929190620000b2565b50806003908051906020019062000068929190620000b2565b5033600460006101000a81548173ffffffffffffffffffffffffffffffffffffffff021916908373ffffffffffffffffffffffffffffffffffffffff1602179055505050620003e9565b828054620000c090620002fa565b90600052602060002090601f016020900481019282620000e4576000855562000130565b82601f10620000ff57805160ff191683800117855562000130565b8280016001018555821562000130579182015b828111156200012f57825182559160200191906001019062000112565b5b5090506200013f919062000143565b5090565b5b808211156200015e57600081600090555060010162000144565b5090565b60006200017962000173846200028e565b62000265565b905082815260208101848484011115620001985762000197620003c9565b5b620001a5848285620002c4565b509392505050565b600082601f830112620001c557620001c4620003c4565b5b8151620001d784826020860162000162565b91505092915050565b60008060408385031215620001fa57620001f9620003d3565b5b600083015167ffffffffffffffff8111156200021b576200021a620003ce565b5b6200022985828601620001ad565b925050602083015167ffffffffffffffff8111156200024d576200024c620003ce565b5b6200025b85828601620001ad565b9150509250929050565b60006200027162000284565b90506200027f828262000330565b919050565b6000604051905090565b600067ffffffffffffffff821115620002ac57620002ab62000395565b5b620002b782620003d8565b9050602081019050919050565b60005b83811015620002e4578082015181840152602081019050620002c7565b83811115620002f4576000848401525b50505050565b600060028204905060018216806200031357607f821691505b602082108114156200032a576200032962000366565b5b50919050565b6200033b82620003d8565b810181811067ffffffffffffffff821117156200035d576200035c62000395565b5b80604052505050565b7f4e487b7100000000000000000000000000000000000000000000000000000000600052602260045260246000fd5b7f4e487b7100000000000000000000000000000000000000000000000000000000600052604160045260246000fd5b600080fd5b600080fd5b600080fd5b600080fd5b6000601f19601f8301169050919050565b610e5880620003f96000396000f3fe608060405234801561001057600080fd5b50600436106100885760003560e01c80638da5cb5b1161005b5780638da5cb5b1461011757806395d89b4114610135578063a0712d6814610153578063beabacc81461018357610088565b806306fdde031461008d57806318160ddd146100ab578063313ce567146100c957806370a08231146100e7575b600080fd5b6100956101b3565b6040516100a291906109f7565b60405180910390f35b6100b3610245565b6040516100c09190610ab9565b60405180910390f35b6100d161024f565b6040516100de9190610ad4565b60405180910390f35b61010160048036038101906100fc91906107f0565b610254565b60405161010e9190610ab9565b60405180910390f35b61011f61029c565b60405161012c91906109c1565b60405180910390f35b61013d6102c2565b60405161014a91906109f7565b60405180910390f35b61016d60048036038101906101689190610870565b610354565b60405161017a91906109dc565b60405180910390f35b61019d6004803603810190610198919061081d565b6103fb565b6040516101aa91906109dc565b60405180910390f35b6060600280546101c290610be9565b80601f01602080910402602001604051908101604052809291908181526020018280546101ee90610be9565b801561023b5780601f106102105761010080835404028352916020019161023b565b820191906000526020600020905b81548152906001019060200180831161021e57829003601f168201915b5050505050905090565b6000600154905090565b600090565b60008060008373ffffffffffffffffffffffffffffffffffffffff1673ffffffffffffffffffffffffffffffffffffffff168152602001908152602001600020549050919050565b600460009054906101000a900473ffffffffffffffffffffffffffffffffffffffff1681565b6060600380546102d190610be9565b80601f01602080910402602001604051908101604052809291908181526020018280546102fd90610be9565b801561034a5780601f1061031f5761010080835404028352916020019161034a565b820191906000526020600020905b81548152906001019060200180831161032d57829003601f168201915b5050505050905090565b600033600460009054906101000a900473ffffffffffffffffffffffffffffffffffffffff1673ffffffffffffffffffffffffffffffffffffffff168173ffffffffffffffffffffffffffffffffffffffff16146103e7576040517f08c379a00000000000000000000000000000000000000000000000000000000081526004016103de90610a59565b60405180910390fd5b6103f13384610413565b6001915050919050565b600061040884848461055b565b600190509392505050565b600073ffffffffffffffffffffffffffffffffffffffff168273ffffffffffffffffffffffffffffffffffffffff161415610483576040517f08c379a000000000000000000000000000000000000000000000000000000000815260040161047a90610a99565b60405180910390fd5b80600160008282546104959190610b0b565b92505081905550806000808473ffffffffffffffffffffffffffffffffffffffff1673ffffffffffffffffffffffffffffffffffffffff16815260200190815260200160002060008282546104ea9190610b0b565b925050819055508173ffffffffffffffffffffffffffffffffffffffff16600073ffffffffffffffffffffffffffffffffffffffff167fddf252ad1be2c89b69c2b068fc378daa952ba7f163c4a11628f55a4df523b3ef8360405161054f9190610ab9565b60405180910390a35050565b600073ffffffffffffffffffffffffffffffffffffffff168373ffffffffffffffffffffffffffffffffffffffff1614156105cb576040517f08c379a00000000000000000000000000000000000000000000000000000000081526004016105c290610a79565b60405180910390fd5b600073ffffffffffffffffffffffffffffffffffffffff168273ffffffffffffffffffffffffffffffffffffffff16141561063b576040517f08c379a000000000000000000000000000000000000000000000000000000000815260040161063290610a19565b60405180910390fd5b60008060008573ffffffffffffffffffffffffffffffffffffffff1673ffffffffffffffffffffffffffffffffffffffff168152602001908152602001600020549050818110156106c1576040517f08c379a00000000000000000000000000000000000000000000000000000000081526004016106b890610a39565b60405180910390fd5b8181036000808673ffffffffffffffffffffffffffffffffffffffff1673ffffffffffffffffffffffffffffffffffffffff16815260200190815260200160002081905550816000808573ffffffffffffffffffffffffffffffffffffffff1673ffffffffffffffffffffffffffffffffffffffff16815260200190815260200160002060008282546107549190610b0b565b925050819055508273ffffffffffffffffffffffffffffffffffffffff168473ffffffffffffffffffffffffffffffffffffffff167fddf252ad1be2c89b69c2b068fc378daa952ba7f163c4a11628f55a4df523b3ef846040516107b89190610ab9565b60405180910390a350505050565b6000813590506107d581610df4565b92915050565b6000813590506107ea81610e0b565b92915050565b60006020828403121561080657610805610c79565b5b6000610814848285016107c6565b91505092915050565b60008060006060848603121561083657610835610c79565b5b6000610844868287016107c6565b9350506020610855868287016107c6565b9250506040610866868287016107db565b9150509250925092565b60006020828403121561088657610885610c79565b5b6000610894848285016107db565b91505092915050565b6108a681610b61565b82525050565b6108b581610b73565b82525050565b60006108c682610aef565b6108d08185610afa565b93506108e0818560208601610bb6565b6108e981610c7e565b840191505092915050565b6000610901602383610afa565b915061090c82610c8f565b604082019050919050565b6000610924602683610afa565b915061092f82610cde565b604082019050919050565b6000610947602e83610afa565b915061095282610d2d565b604082019050919050565b600061096a602583610afa565b915061097582610d7c565b604082019050919050565b600061098d601f83610afa565b915061099882610dcb565b602082019050919050565b6109ac81610b9f565b82525050565b6109bb81610ba9565b82525050565b60006020820190506109d6600083018461089d565b92915050565b60006020820190506109f160008301846108ac565b92915050565b60006020820190508181036000830152610a1181846108bb565b905092915050565b60006020820190508181036000830152610a32816108f4565b9050919050565b60006020820190508181036000830152610a5281610917565b9050919050565b60006020820190508181036000830152610a728161093a565b9050919050565b60006020820190508181036000830152610a928161095d565b9050919050565b60006020820190508181036000830152610ab281610980565b9050919050565b6000602082019050610ace60008301846109a3565b92915050565b6000602082019050610ae960008301846109b2565b92915050565b600081519050919050565b600082825260208201905092915050565b6000610b1682610b9f565b9150610b2183610b9f565b9250827fffffffffffffffffffffffffffffffffffffffffffffffffffffffffffffffff03821115610b5657610b55610c1b565b5b828201905092915050565b6000610b6c82610b7f565b9050919050565b60008115159050919050565b600073ffffffffffffffffffffffffffffffffffffffff82169050919050565b6000819050919050565b600060ff82169050919050565b60005b83811015610bd4578082015181840152602081019050610bb9565b83811115610be3576000848401525b50505050565b60006002820490506001821680610c0157607f821691505b60208210811415610c1557610c14610c4a565b5b50919050565b7f4e487b7100000000000000000000000000000000000000000000000000000000600052601160045260246000fd5b7f4e487b7100000000000000000000000000000000000000000000000000000000600052602260045260246000fd5b600080fd5b6000601f19601f8301169050919050565b7f45524332303a207472616e7366657220746f20746865207a65726f206164647260008201527f6573730000000000000000000000000000000000000000000000000000000000602082015250565b7f45524332303a207472616e7366657220616d6f756e742065786365656473206260008201527f616c616e63650000000000000000000000000000000000000000000000000000602082015250565b7f4e6f207469656e6573207065726d69736f73207061726120656a65637574617260008201527f20657374612066756e63696f6e2e000000000000000000000000000000000000602082015250565b7f45524332303a207472616e736665722066726f6d20746865207a65726f20616460008201527f6472657373000000000000000000000000000000000000000000000000000000602082015250565b7f45524332303a206d696e7420746f20746865207a65726f206164647265737300600082015250565b610dfd81610b61565b8114610e0857600080fd5b50565b610e1481610b9f565b8114610e1f57600080fd5b5056fea2646970667358221220564ee57e05b593b5f7a476ae0b15d8c62075d8bf6c8549ffd39a2088c31eb0e064736f6c63430008070033",
  "linkReferences": {},
  "deployedLinkReferences": {}
}