{
  "_format": "hh-sol-artifact-1",
  "contractName": "CoinFlipGame",
  "sourceName": "src/backend/contracts/CoinFlip.sol",
  "abi": [
    {
      "inputs": [],
      "stateMutability": "nonpayable",
      "type": "constructor"
    },
    {
      "inputs": [
        {
          "internalType": "address",
          "name": "have",
          "type": "address"
        },
        {
          "internalType": "address",
          "name": "want",
          "type": "address"
        }
      ],
      "name": "OnlyCoordinatorCanFulfill",
      "type": "error"
    },
    {
      "anonymous": false,
      "inputs": [
        {
          "indexed": true,
          "internalType": "address",
          "name": "player",
          "type": "address"
        },
        {
          "indexed": false,
          "internalType": "bool",
          "name": "win",
          "type": "bool"
        },
        {
          "indexed": false,
          "internalType": "uint256",
          "name": "amount",
          "type": "uint256"
        }
      ],
      "name": "GameResult",
      "type": "event"
    },
    {
      "anonymous": false,
      "inputs": [
        {
          "indexed": true,
          "internalType": "address",
          "name": "from",
          "type": "address"
        },
        {
          "indexed": true,
          "internalType": "address",
          "name": "to",
          "type": "address"
        }
      ],
      "name": "OwnershipTransferRequested",
      "type": "event"
    },
    {
      "anonymous": false,
      "inputs": [
        {
          "indexed": true,
          "internalType": "address",
          "name": "from",
          "type": "address"
        },
        {
          "indexed": true,
          "internalType": "address",
          "name": "to",
          "type": "address"
        }
      ],
      "name": "OwnershipTransferred",
      "type": "event"
    },
    {
      "anonymous": false,
      "inputs": [
        {
          "indexed": false,
          "internalType": "uint256",
          "name": "requestId",
          "type": "uint256"
        },
        {
          "indexed": false,
          "internalType": "uint256[]",
          "name": "randomWords",
          "type": "uint256[]"
        }
      ],
      "name": "RequestFulfilled",
      "type": "event"
    },
    {
      "anonymous": false,
      "inputs": [
        {
          "indexed": false,
          "internalType": "uint256",
          "name": "requestId",
          "type": "uint256"
        },
        {
          "indexed": false,
          "internalType": "uint32",
          "name": "numWords",
          "type": "uint32"
        }
      ],
      "name": "RequestSent",
      "type": "event"
    },
    {
      "inputs": [],
      "name": "acceptOwnership",
      "outputs": [],
      "stateMutability": "nonpayable",
      "type": "function"
    },
    {
      "inputs": [
        {
          "internalType": "address",
          "name": "",
          "type": "address"
        }
      ],
      "name": "bets",
      "outputs": [
        {
          "internalType": "uint256",
          "name": "",
          "type": "uint256"
        }
      ],
      "stateMutability": "view",
      "type": "function"
    },
    {
      "inputs": [
        {
          "internalType": "uint256",
          "name": "_requestId",
          "type": "uint256"
        }
      ],
      "name": "calculateResult",
      "outputs": [],
      "stateMutability": "nonpayable",
      "type": "function"
    },
    {
      "inputs": [
        {
          "internalType": "address",
          "name": "",
          "type": "address"
        }
      ],
      "name": "coinSide",
      "outputs": [
        {
          "internalType": "bool",
          "name": "",
          "type": "bool"
        }
      ],
      "stateMutability": "view",
      "type": "function"
    },
    {
      "inputs": [],
      "name": "getAddress",
      "outputs": [
        {
          "internalType": "address",
          "name": "",
          "type": "address"
        }
      ],
      "stateMutability": "view",
      "type": "function"
    },
    {
      "inputs": [
        {
          "internalType": "uint256",
          "name": "_requestId",
          "type": "uint256"
        }
      ],
      "name": "getRequestStatus",
      "outputs": [
        {
          "internalType": "bool",
          "name": "fulfilled",
          "type": "bool"
        },
        {
          "internalType": "uint256[]",
          "name": "randomWords",
          "type": "uint256[]"
        }
      ],
      "stateMutability": "view",
      "type": "function"
    },
    {
      "inputs": [],
      "name": "lastRequestId",
      "outputs": [
        {
          "internalType": "uint256",
          "name": "",
          "type": "uint256"
        }
      ],
      "stateMutability": "view",
      "type": "function"
    },
    {
      "inputs": [],
      "name": "owner",
      "outputs": [
        {
          "internalType": "address",
          "name": "",
          "type": "address"
        }
      ],
      "stateMutability": "view",
      "type": "function"
    },
    {
      "inputs": [
        {
          "internalType": "bool",
          "name": "_coinSide",
          "type": "bool"
        }
      ],
      "name": "placeBet",
      "outputs": [],
      "stateMutability": "payable",
      "type": "function"
    },
    {
      "inputs": [
        {
          "internalType": "uint256",
          "name": "",
          "type": "uint256"
        }
      ],
      "name": "players",
      "outputs": [
        {
          "internalType": "address",
          "name": "",
          "type": "address"
        }
      ],
      "stateMutability": "view",
      "type": "function"
    },
    {
      "inputs": [
        {
          "internalType": "uint256",
          "name": "requestId",
          "type": "uint256"
        },
        {
          "internalType": "uint256[]",
          "name": "randomWords",
          "type": "uint256[]"
        }
      ],
      "name": "rawFulfillRandomWords",
      "outputs": [],
      "stateMutability": "nonpayable",
      "type": "function"
    },
    {
      "inputs": [
        {
          "internalType": "uint256",
          "name": "",
          "type": "uint256"
        }
      ],
      "name": "requestIds",
      "outputs": [
        {
          "internalType": "uint256",
          "name": "",
          "type": "uint256"
        }
      ],
      "stateMutability": "view",
      "type": "function"
    },
    {
      "inputs": [
        {
          "internalType": "uint256",
          "name": "",
          "type": "uint256"
        }
      ],
      "name": "s_requests",
      "outputs": [
        {
          "internalType": "bool",
          "name": "fulfilled",
          "type": "bool"
        },
        {
          "internalType": "bool",
          "name": "exists",
          "type": "bool"
        }
      ],
      "stateMutability": "view",
      "type": "function"
    },
    {
      "inputs": [
        {
          "internalType": "address",
          "name": "to",
          "type": "address"
        }
      ],
      "name": "transferOwnership",
      "outputs": [],
      "stateMutability": "nonpayable",
      "type": "function"
    },
    {
      "stateMutability": "payable",
      "type": "receive"
    }
  ],
  "bytecode": "0x60a06040526113e6600360146101000a81548167ffffffffffffffff021916908367ffffffffffffffff1602179055507f4b09e658ed251bcafeebbc69400383d49f344ace09b9576fe248bb02c003fe9f60001b60065562061a80600760006101000a81548163ffffffff021916908363ffffffff1602179055506003600760046101000a81548161ffff021916908361ffff1602179055506001600760066101000a81548163ffffffff021916908363ffffffff160217905550348015620000c757600080fd5b5033806000737a1bac17ccc5b313516c5e16fb24f7659aa5ebed8073ffffffffffffffffffffffffffffffffffffffff1660808173ffffffffffffffffffffffffffffffffffffffff1660601b8152505050600073ffffffffffffffffffffffffffffffffffffffff168273ffffffffffffffffffffffffffffffffffffffff1614156200018c576040517f08c379a00000000000000000000000000000000000000000000000000000000081526004016200018390620003ef565b60405180910390fd5b816000806101000a81548173ffffffffffffffffffffffffffffffffffffffff021916908373ffffffffffffffffffffffffffffffffffffffff160217905550600073ffffffffffffffffffffffffffffffffffffffff168173ffffffffffffffffffffffffffffffffffffffff1614620002135762000212816200027160201b60201c565b5b505050737a1bac17ccc5b313516c5e16fb24f7659aa5ebed600360006101000a81548173ffffffffffffffffffffffffffffffffffffffff021916908373ffffffffffffffffffffffffffffffffffffffff16021790555062000496565b3373ffffffffffffffffffffffffffffffffffffffff168173ffffffffffffffffffffffffffffffffffffffff161415620002e3576040517f08c379a0000000000000000000000000000000000000000000000000000000008152600401620002da9062000411565b60405180910390fd5b80600160006101000a81548173ffffffffffffffffffffffffffffffffffffffff021916908373ffffffffffffffffffffffffffffffffffffffff1602179055508073ffffffffffffffffffffffffffffffffffffffff1660008054906101000a900473ffffffffffffffffffffffffffffffffffffffff1673ffffffffffffffffffffffffffffffffffffffff167fed8889f560326eb138920d842192f0eb3dd22b4f139c87a2c57538e05bae127860405160405180910390a350565b6000620003b060188362000433565b9150620003bd8262000444565b602082019050919050565b6000620003d760178362000433565b9150620003e4826200046d565b602082019050919050565b600060208201905081810360008301526200040a81620003a1565b9050919050565b600060208201905081810360008301526200042c81620003c8565b9050919050565b600082825260208201905092915050565b7f43616e6e6f7420736574206f776e657220746f207a65726f0000000000000000600082015250565b7f43616e6e6f74207472616e7366657220746f2073656c66000000000000000000600082015250565b60805160601c611f1e620004bc600039600081816105ac01526106000152611f1e6000f3fe6080604052600436106100e15760003560e01c80638c51fedb1161007f578063d8a4676f11610059578063d8a4676f146102bd578063f2fde38b146102fb578063f71d96cb14610324578063fc2a88c314610361576100e8565b80638c51fedb1461022b5780638da5cb5b14610254578063a168fa891461027f576100e8565b80633b1b511d116100bb5780633b1b511d1461015d57806379ba50971461019a5780638796ba8c146101b157806389a78f1a146101ee576100e8565b8063096a3778146100ed5780631fe543e31461010957806338cc483114610132576100e8565b366100e857005b600080fd5b6101076004803603810190610102919061150b565b61038c565b005b34801561011557600080fd5b50610130600480360381019061012b9190611592565b6105aa565b005b34801561013e57600080fd5b5061014761066a565b60405161015491906117d1565b60405180910390f35b34801561016957600080fd5b50610184600480360381019061017f91906114de565b610672565b6040516101919190611815565b60405180910390f35b3480156101a657600080fd5b506101af610692565b005b3480156101bd57600080fd5b506101d860048036038101906101d39190611538565b610827565b6040516101e591906119e5565b60405180910390f35b3480156101fa57600080fd5b50610215600480360381019061021091906114de565b61084b565b60405161022291906119e5565b60405180910390f35b34801561023757600080fd5b50610252600480360381019061024d9190611538565b610863565b005b34801561026057600080fd5b50610269610caa565b60405161027691906117d1565b60405180910390f35b34801561028b57600080fd5b506102a660048036038101906102a19190611538565b610cd3565b6040516102b4929190611860565b60405180910390f35b3480156102c957600080fd5b506102e460048036038101906102df9190611538565b610d11565b6040516102f2929190611830565b60405180910390f35b34801561030757600080fd5b50610322600480360381019061031d91906114de565b610e3c565b005b34801561033057600080fd5b5061034b60048036038101906103469190611538565b610e50565b60405161035891906117d1565b60405180910390f35b34801561036d57600080fd5b50610376610e8f565b60405161038391906119e5565b60405180910390f35b600034116103cf576040517f08c379a00000000000000000000000000000000000000000000000000000000081526004016103c690611965565b60405180910390fd5b6000600860003373ffffffffffffffffffffffffffffffffffffffff1673ffffffffffffffffffffffffffffffffffffffff1681526020019081526020016000205414610451576040517f08c379a0000000000000000000000000000000000000000000000000000000008152600401610448906119a5565b60405180910390fd5b34600860003373ffffffffffffffffffffffffffffffffffffffff1673ffffffffffffffffffffffffffffffffffffffff1681526020019081526020016000208190555080600960003373ffffffffffffffffffffffffffffffffffffffff1673ffffffffffffffffffffffffffffffffffffffff16815260200190815260200160002060006101000a81548160ff021916908315150217905550600a339080600181540180825580915050600190039060005260206000200160009091909190916101000a81548173ffffffffffffffffffffffffffffffffffffffff021916908373ffffffffffffffffffffffffffffffffffffffff1602179055506000610559610e95565b90507fcc58b13ad3eab50626c6a6300b1d139cd6ebb1688a7cced9461c2f7e762665ee81600760069054906101000a900463ffffffff1660405161059e929190611a30565b60405180910390a15050565b7f000000000000000000000000000000000000000000000000000000000000000073ffffffffffffffffffffffffffffffffffffffff163373ffffffffffffffffffffffffffffffffffffffff161461065c57337f00000000000000000000000000000000000000000000000000000000000000006040517f1cf993f40000000000000000000000000000000000000000000000000000000081526004016106539291906117ec565b60405180910390fd5b61066682826110aa565b5050565b600030905090565b60096020528060005260406000206000915054906101000a900460ff1681565b600160009054906101000a900473ffffffffffffffffffffffffffffffffffffffff1673ffffffffffffffffffffffffffffffffffffffff163373ffffffffffffffffffffffffffffffffffffffff1614610722576040517f08c379a000000000000000000000000000000000000000000000000000000000815260040161071990611925565b60405180910390fd5b60008060009054906101000a900473ffffffffffffffffffffffffffffffffffffffff169050336000806101000a81548173ffffffffffffffffffffffffffffffffffffffff021916908373ffffffffffffffffffffffffffffffffffffffff1602179055506000600160006101000a81548173ffffffffffffffffffffffffffffffffffffffff021916908373ffffffffffffffffffffffffffffffffffffffff1602179055503373ffffffffffffffffffffffffffffffffffffffff168173ffffffffffffffffffffffffffffffffffffffff167f8be0079c531659141344cd1fd0a4f28419497f9722a3daafe3b4186f6b6457e060405160405180910390a350565b6004818154811061083757600080fd5b906000526020600020016000915090505481565b60086020528060005260406000206000915090505481565b6002600082815260200190815260200160002060000160019054906101000a900460ff166108c6576040517f08c379a00000000000000000000000000000000000000000000000000000000081526004016108bd90611905565b60405180910390fd5b6002600082815260200190815260200160002060000160009054906101000a900460ff16610929576040517f08c379a0000000000000000000000000000000000000000000000000000000008152600401610920906119c5565b60405180910390fd5b60006002600083815260200190815260200160002060010180548060200260200160405190810160405280929190818152602001828054801561098b57602002820191906000526020600020905b815481526020019060010190808311610977575b505050505090506000806002836000815181106109ab576109aa611cdb565b5b60200260200101516109bd9190611c4c565b14905060005b600a80549050811015610c96576000600a82815481106109e6576109e5611cdb565b5b9060005260206000200160009054906101000a900473ffffffffffffffffffffffffffffffffffffffff1690506000600960008373ffffffffffffffffffffffffffffffffffffffff1673ffffffffffffffffffffffffffffffffffffffff16815260200190815260200160002060009054906101000a900460ff1690508315158115151415610b5e5760006002600860008573ffffffffffffffffffffffffffffffffffffffff1673ffffffffffffffffffffffffffffffffffffffff16815260200190815260200160002054610abe9190611af4565b90508273ffffffffffffffffffffffffffffffffffffffff166108fc829081150290604051600060405180830381858888f19350505050158015610b06573d6000803e3d6000fd5b508273ffffffffffffffffffffffffffffffffffffffff167f917ed633130aae9351fcee877554607b5d2fa7a5c78c8f8c194b653d362aae22600183604051610b50929190611889565b60405180910390a250610bef565b8173ffffffffffffffffffffffffffffffffffffffff167f917ed633130aae9351fcee877554607b5d2fa7a5c78c8f8c194b653d362aae226000600860008673ffffffffffffffffffffffffffffffffffffffff1673ffffffffffffffffffffffffffffffffffffffff16815260200190815260200160002054604051610be6929190611889565b60405180910390a25b600860008373ffffffffffffffffffffffffffffffffffffffff1673ffffffffffffffffffffffffffffffffffffffff16815260200190815260200160002060009055600960008373ffffffffffffffffffffffffffffffffffffffff1673ffffffffffffffffffffffffffffffffffffffff16815260200190815260200160002060006101000a81549060ff021916905550508080610c8e90611c03565b9150506109c3565b50600a6000610ca59190611361565b505050565b60008060009054906101000a900473ffffffffffffffffffffffffffffffffffffffff16905090565b60026020528060005260406000206000915090508060000160009054906101000a900460ff16908060000160019054906101000a900460ff16905082565b600060606002600084815260200190815260200160002060000160019054906101000a900460ff16610d78576040517f08c379a0000000000000000000000000000000000000000000000000000000008152600401610d6f90611905565b60405180910390fd5b6000600260008581526020019081526020016000206040518060600160405290816000820160009054906101000a900460ff161515151581526020016000820160019054906101000a900460ff1615151515815260200160018201805480602002602001604051908101604052809291908181526020018280548015610e1d57602002820191906000526020600020905b815481526020019060010190808311610e09575b5050505050815250509050806000015181604001519250925050915091565b610e446111a4565b610e4d81611234565b50565b600a8181548110610e6057600080fd5b906000526020600020016000915054906101000a900473ffffffffffffffffffffffffffffffffffffffff1681565b60055481565b6000600360009054906101000a900473ffffffffffffffffffffffffffffffffffffffff1673ffffffffffffffffffffffffffffffffffffffff16635d3b1d30600654600360149054906101000a900467ffffffffffffffff16600760049054906101000a900461ffff16600760009054906101000a900463ffffffff16600760069054906101000a900463ffffffff166040518663ffffffff1660e01b8152600401610f469594939291906118b2565b602060405180830381600087803b158015610f6057600080fd5b505af1158015610f74573d6000803e3d6000fd5b505050506040513d601f19601f82011682018060405250810190610f989190611565565b90506040518060600160405280600015158152602001600115158152602001600067ffffffffffffffff811115610fd257610fd1611d0a565b5b6040519080825280602002602001820160405280156110005781602001602082028036833780820191505090505b508152506002600083815260200190815260200160002060008201518160000160006101000a81548160ff02191690831515021790555060208201518160000160016101000a81548160ff0219169083151502179055506040820151816001019080519060200190611073929190611382565b5090505060048190806001815401808255809150506001900390600052602060002001600090919091909150558060058190555090565b6002600083815260200190815260200160002060000160019054906101000a900460ff1661110d576040517f08c379a000000000000000000000000000000000000000000000000000000000815260040161110490611905565b60405180910390fd5b60016002600084815260200190815260200160002060000160006101000a81548160ff02191690831515021790555080600260008481526020019081526020016000206001019080519060200190611166929190611382565b507ffe2e2d779dba245964d4e3ef9b994be63856fd568bf7d3ca9e224755cb1bd54d8282604051611198929190611a00565b60405180910390a15050565b60008054906101000a900473ffffffffffffffffffffffffffffffffffffffff1673ffffffffffffffffffffffffffffffffffffffff163373ffffffffffffffffffffffffffffffffffffffff1614611232576040517f08c379a000000000000000000000000000000000000000000000000000000000815260040161122990611945565b60405180910390fd5b565b3373ffffffffffffffffffffffffffffffffffffffff168173ffffffffffffffffffffffffffffffffffffffff1614156112a3576040517f08c379a000000000000000000000000000000000000000000000000000000000815260040161129a90611985565b60405180910390fd5b80600160006101000a81548173ffffffffffffffffffffffffffffffffffffffff021916908373ffffffffffffffffffffffffffffffffffffffff1602179055508073ffffffffffffffffffffffffffffffffffffffff1660008054906101000a900473ffffffffffffffffffffffffffffffffffffffff1673ffffffffffffffffffffffffffffffffffffffff167fed8889f560326eb138920d842192f0eb3dd22b4f139c87a2c57538e05bae127860405160405180910390a350565b508054600082559060005260206000209081019061137f91906113cf565b50565b8280548282559060005260206000209081019282156113be579160200282015b828111156113bd5782518255916020019190600101906113a2565b5b5090506113cb91906113cf565b5090565b5b808211156113e85760008160009055506001016113d0565b5090565b60006113ff6113fa84611a7e565b611a59565b9050808382526020820190508285602086028201111561142257611421611d3e565b5b60005b85811015611452578161143888826114b4565b845260208401935060208301925050600181019050611425565b5050509392505050565b60008135905061146b81611ea3565b92915050565b600082601f83011261148657611485611d39565b5b81356114968482602086016113ec565b91505092915050565b6000813590506114ae81611eba565b92915050565b6000813590506114c381611ed1565b92915050565b6000815190506114d881611ed1565b92915050565b6000602082840312156114f4576114f3611d48565b5b60006115028482850161145c565b91505092915050565b60006020828403121561152157611520611d48565b5b600061152f8482850161149f565b91505092915050565b60006020828403121561154e5761154d611d48565b5b600061155c848285016114b4565b91505092915050565b60006020828403121561157b5761157a611d48565b5b6000611589848285016114c9565b91505092915050565b600080604083850312156115a9576115a8611d48565b5b60006115b7858286016114b4565b925050602083013567ffffffffffffffff8111156115d8576115d7611d43565b5b6115e485828601611471565b9150509250929050565b60006115fa8383611795565b60208301905092915050565b61160f81611b4e565b82525050565b600061162082611aba565b61162a8185611ad2565b935061163583611aaa565b8060005b8381101561166657815161164d88826115ee565b975061165883611ac5565b925050600181019050611639565b5085935050505092915050565b61167c81611b60565b82525050565b61168b81611b6c565b82525050565b600061169e601183611ae3565b91506116a982611d5e565b602082019050919050565b60006116c1601683611ae3565b91506116cc82611d87565b602082019050919050565b60006116e4601683611ae3565b91506116ef82611db0565b602082019050919050565b6000611707602183611ae3565b915061171282611dd9565b604082019050919050565b600061172a601783611ae3565b915061173582611e28565b602082019050919050565b600061174d601283611ae3565b915061175882611e51565b602082019050919050565b6000611770601583611ae3565b915061177b82611e7a565b602082019050919050565b61178f81611b76565b82525050565b61179e81611ba4565b82525050565b6117ad81611ba4565b82525050565b6117bc81611bae565b82525050565b6117cb81611bbe565b82525050565b60006020820190506117e66000830184611606565b92915050565b60006040820190506118016000830185611606565b61180e6020830184611606565b9392505050565b600060208201905061182a6000830184611673565b92915050565b60006040820190506118456000830185611673565b81810360208301526118578184611615565b90509392505050565b60006040820190506118756000830185611673565b6118826020830184611673565b9392505050565b600060408201905061189e6000830185611673565b6118ab60208301846117a4565b9392505050565b600060a0820190506118c76000830188611682565b6118d460208301876117c2565b6118e16040830186611786565b6118ee60608301856117b3565b6118fb60808301846117b3565b9695505050505050565b6000602082019050818103600083015261191e81611691565b9050919050565b6000602082019050818103600083015261193e816116b4565b9050919050565b6000602082019050818103600083015261195e816116d7565b9050919050565b6000602082019050818103600083015261197e816116fa565b9050919050565b6000602082019050818103600083015261199e8161171d565b9050919050565b600060208201905081810360008301526119be81611740565b9050919050565b600060208201905081810360008301526119de81611763565b9050919050565b60006020820190506119fa60008301846117a4565b92915050565b6000604082019050611a1560008301856117a4565b8181036020830152611a278184611615565b90509392505050565b6000604082019050611a4560008301856117a4565b611a5260208301846117b3565b9392505050565b6000611a63611a74565b9050611a6f8282611bd2565b919050565b6000604051905090565b600067ffffffffffffffff821115611a9957611a98611d0a565b5b602082029050602081019050919050565b6000819050602082019050919050565b600081519050919050565b6000602082019050919050565b600082825260208201905092915050565b600082825260208201905092915050565b6000611aff82611ba4565b9150611b0a83611ba4565b9250817fffffffffffffffffffffffffffffffffffffffffffffffffffffffffffffffff0483118215151615611b4357611b42611c7d565b5b828202905092915050565b6000611b5982611b84565b9050919050565b60008115159050919050565b6000819050919050565b600061ffff82169050919050565b600073ffffffffffffffffffffffffffffffffffffffff82169050919050565b6000819050919050565b600063ffffffff82169050919050565b600067ffffffffffffffff82169050919050565b611bdb82611d4d565b810181811067ffffffffffffffff82111715611bfa57611bf9611d0a565b5b80604052505050565b6000611c0e82611ba4565b91507fffffffffffffffffffffffffffffffffffffffffffffffffffffffffffffffff821415611c4157611c40611c7d565b5b600182019050919050565b6000611c5782611ba4565b9150611c6283611ba4565b925082611c7257611c71611cac565b5b828206905092915050565b7f4e487b7100000000000000000000000000000000000000000000000000000000600052601160045260246000fd5b7f4e487b7100000000000000000000000000000000000000000000000000000000600052601260045260246000fd5b7f4e487b7100000000000000000000000000000000000000000000000000000000600052603260045260246000fd5b7f4e487b7100000000000000000000000000000000000000000000000000000000600052604160045260246000fd5b600080fd5b600080fd5b600080fd5b600080fd5b6000601f19601f8301169050919050565b7f72657175657374206e6f7420666f756e64000000000000000000000000000000600082015250565b7f4d7573742062652070726f706f736564206f776e657200000000000000000000600082015250565b7f4f6e6c792063616c6c61626c65206279206f776e657200000000000000000000600082015250565b7f42657420616d6f756e74206d7573742062652067726561746572207468616e2060008201527f3000000000000000000000000000000000000000000000000000000000000000602082015250565b7f43616e6e6f74207472616e7366657220746f2073656c66000000000000000000600082015250565b7f416c726561647920706c61636564206265740000000000000000000000000000600082015250565b7f72657175657374206e6f742066756c66696c6c65640000000000000000000000600082015250565b611eac81611b4e565b8114611eb757600080fd5b50565b611ec381611b60565b8114611ece57600080fd5b50565b611eda81611ba4565b8114611ee557600080fd5b5056fea2646970667358221220ed1fa0a562c48c4540e12fe8b41e33bfd9c80991e06f3342d4c4b8d3ff565b3364736f6c63430008070033",
  "linkReferences": {},
  "deployedLinkReferences": {}
}