{
  "_format": "hh-sol-artifact-1",
  "contractName": "Casino",
  "sourceName": "src/backend/contracts/Casino.sol",
  "abi": [
    {
      "inputs": [],
      "stateMutability": "nonpayable",
      "type": "constructor"
    },
    {
      "inputs": [
        {
          "internalType": "address",
          "name": "have",
          "type": "address"
        },
        {
          "internalType": "address",
          "name": "want",
          "type": "address"
        }
      ],
      "name": "OnlyCoordinatorCanFulfill",
      "type": "error"
    },
    {
      "anonymous": false,
      "inputs": [
        {
          "indexed": true,
          "internalType": "address",
          "name": "player",
          "type": "address"
        },
        {
          "indexed": false,
          "internalType": "bool",
          "name": "win",
          "type": "bool"
        },
        {
          "indexed": false,
          "internalType": "uint256",
          "name": "amount",
          "type": "uint256"
        }
      ],
      "name": "GameResult",
      "type": "event"
    },
    {
      "anonymous": false,
      "inputs": [
        {
          "indexed": true,
          "internalType": "address",
          "name": "from",
          "type": "address"
        },
        {
          "indexed": true,
          "internalType": "address",
          "name": "to",
          "type": "address"
        }
      ],
      "name": "OwnershipTransferRequested",
      "type": "event"
    },
    {
      "anonymous": false,
      "inputs": [
        {
          "indexed": true,
          "internalType": "address",
          "name": "from",
          "type": "address"
        },
        {
          "indexed": true,
          "internalType": "address",
          "name": "to",
          "type": "address"
        }
      ],
      "name": "OwnershipTransferred",
      "type": "event"
    },
    {
      "anonymous": false,
      "inputs": [
        {
          "indexed": false,
          "internalType": "uint256",
          "name": "requestId",
          "type": "uint256"
        },
        {
          "indexed": false,
          "internalType": "uint256[]",
          "name": "randomWords",
          "type": "uint256[]"
        }
      ],
      "name": "RequestFulfilled",
      "type": "event"
    },
    {
      "anonymous": false,
      "inputs": [
        {
          "indexed": false,
          "internalType": "uint256",
          "name": "requestId",
          "type": "uint256"
        },
        {
          "indexed": false,
          "internalType": "uint32",
          "name": "numWords",
          "type": "uint32"
        }
      ],
      "name": "RequestSent",
      "type": "event"
    },
    {
      "anonymous": false,
      "inputs": [
        {
          "indexed": false,
          "internalType": "uint256",
          "name": "NumberWin",
          "type": "uint256"
        },
        {
          "indexed": false,
          "internalType": "bool",
          "name": "result",
          "type": "bool"
        },
        {
          "indexed": false,
          "internalType": "uint256",
          "name": "tokensEarned",
          "type": "uint256"
        }
      ],
      "name": "RouletteGame",
      "type": "event"
    },
    {
      "inputs": [],
      "name": "acceptOwnership",
      "outputs": [],
      "stateMutability": "nonpayable",
      "type": "function"
    },
    {
      "inputs": [],
      "name": "balanceEthersSC",
      "outputs": [
        {
          "internalType": "uint256",
          "name": "",
          "type": "uint256"
        }
      ],
      "stateMutability": "view",
      "type": "function"
    },
    {
      "inputs": [
        {
          "internalType": "address",
          "name": "",
          "type": "address"
        }
      ],
      "name": "bets",
      "outputs": [
        {
          "internalType": "uint256",
          "name": "",
          "type": "uint256"
        }
      ],
      "stateMutability": "view",
      "type": "function"
    },
    {
      "inputs": [
        {
          "internalType": "uint256",
          "name": "_requestId",
          "type": "uint256"
        }
      ],
      "name": "calculateResult",
      "outputs": [],
      "stateMutability": "nonpayable",
      "type": "function"
    },
    {
      "inputs": [
        {
          "internalType": "address",
          "name": "",
          "type": "address"
        }
      ],
      "name": "coinSide",
      "outputs": [
        {
          "internalType": "uint256",
          "name": "",
          "type": "uint256"
        }
      ],
      "stateMutability": "view",
      "type": "function"
    },
    {
      "inputs": [
        {
          "internalType": "uint256",
          "name": "_numTokens",
          "type": "uint256"
        }
      ],
      "name": "compraTokens",
      "outputs": [],
      "stateMutability": "payable",
      "type": "function"
    },
    {
      "inputs": [
        {
          "internalType": "uint256",
          "name": "_numTokens",
          "type": "uint256"
        }
      ],
      "name": "devolverTokens",
      "outputs": [],
      "stateMutability": "payable",
      "type": "function"
    },
    {
      "inputs": [],
      "name": "getAdress",
      "outputs": [
        {
          "internalType": "address",
          "name": "",
          "type": "address"
        }
      ],
      "stateMutability": "view",
      "type": "function"
    },
    {
      "inputs": [
        {
          "internalType": "uint256",
          "name": "_requestId",
          "type": "uint256"
        }
      ],
      "name": "getRequestStatus",
      "outputs": [
        {
          "internalType": "bool",
          "name": "fulfilled",
          "type": "bool"
        },
        {
          "internalType": "uint256[]",
          "name": "randomWords",
          "type": "uint256[]"
        }
      ],
      "stateMutability": "view",
      "type": "function"
    },
    {
      "inputs": [
        {
          "internalType": "uint256",
          "name": "_start",
          "type": "uint256"
        },
        {
          "internalType": "uint256",
          "name": "_end",
          "type": "uint256"
        },
        {
          "internalType": "uint256",
          "name": "_tokensBet",
          "type": "uint256"
        }
      ],
      "name": "jugarRuleta",
      "outputs": [],
      "stateMutability": "nonpayable",
      "type": "function"
    },
    {
      "inputs": [],
      "name": "lastRequestId",
      "outputs": [
        {
          "internalType": "uint256",
          "name": "",
          "type": "uint256"
        }
      ],
      "stateMutability": "view",
      "type": "function"
    },
    {
      "inputs": [],
      "name": "owner",
      "outputs": [
        {
          "internalType": "address",
          "name": "",
          "type": "address"
        }
      ],
      "stateMutability": "view",
      "type": "function"
    },
    {
      "inputs": [
        {
          "internalType": "uint256",
          "name": "_coinSide",
          "type": "uint256"
        },
        {
          "internalType": "uint256",
          "name": "_tokensBet",
          "type": "uint256"
        }
      ],
      "name": "placeBet",
      "outputs": [],
      "stateMutability": "payable",
      "type": "function"
    },
    {
      "inputs": [
        {
          "internalType": "uint256",
          "name": "",
          "type": "uint256"
        }
      ],
      "name": "players",
      "outputs": [
        {
          "internalType": "address",
          "name": "",
          "type": "address"
        }
      ],
      "stateMutability": "view",
      "type": "function"
    },
    {
      "inputs": [
        {
          "internalType": "uint256",
          "name": "_numTokens",
          "type": "uint256"
        }
      ],
      "name": "precioTokens",
      "outputs": [
        {
          "internalType": "uint256",
          "name": "",
          "type": "uint256"
        }
      ],
      "stateMutability": "pure",
      "type": "function"
    },
    {
      "inputs": [
        {
          "internalType": "uint256",
          "name": "requestId",
          "type": "uint256"
        },
        {
          "internalType": "uint256[]",
          "name": "randomWords",
          "type": "uint256[]"
        }
      ],
      "name": "rawFulfillRandomWords",
      "outputs": [],
      "stateMutability": "nonpayable",
      "type": "function"
    },
    {
      "inputs": [
        {
          "internalType": "uint256",
          "name": "",
          "type": "uint256"
        }
      ],
      "name": "requestIds",
      "outputs": [
        {
          "internalType": "uint256",
          "name": "",
          "type": "uint256"
        }
      ],
      "stateMutability": "view",
      "type": "function"
    },
    {
      "inputs": [
        {
          "internalType": "uint256",
          "name": "_numEther",
          "type": "uint256"
        }
      ],
      "name": "retirarEth",
      "outputs": [],
      "stateMutability": "payable",
      "type": "function"
    },
    {
      "inputs": [
        {
          "internalType": "uint256",
          "name": "",
          "type": "uint256"
        }
      ],
      "name": "s_requests",
      "outputs": [
        {
          "internalType": "bool",
          "name": "fulfilled",
          "type": "bool"
        },
        {
          "internalType": "bool",
          "name": "exists",
          "type": "bool"
        }
      ],
      "stateMutability": "view",
      "type": "function"
    },
    {
      "inputs": [],
      "name": "tokenAddress",
      "outputs": [
        {
          "internalType": "address",
          "name": "",
          "type": "address"
        }
      ],
      "stateMutability": "view",
      "type": "function"
    },
    {
      "inputs": [
        {
          "internalType": "address",
          "name": "_of",
          "type": "address"
        }
      ],
      "name": "tokenBalance",
      "outputs": [
        {
          "internalType": "uint256",
          "name": "",
          "type": "uint256"
        }
      ],
      "stateMutability": "view",
      "type": "function"
    },
    {
      "inputs": [
        {
          "internalType": "address",
          "name": "to",
          "type": "address"
        }
      ],
      "name": "transferOwnership",
      "outputs": [],
      "stateMutability": "nonpayable",
      "type": "function"
    },
    {
      "inputs": [
        {
          "internalType": "address",
          "name": "_propietario",
          "type": "address"
        }
      ],
      "name": "tuHistorial",
      "outputs": [
        {
          "components": [
            {
              "internalType": "uint256",
              "name": "tokensBet",
              "type": "uint256"
            },
            {
              "internalType": "uint256",
              "name": "tokensEarned",
              "type": "uint256"
            },
            {
              "internalType": "string",
              "name": "game",
              "type": "string"
            }
          ],
          "internalType": "struct Casino.Bet[]",
          "name": "",
          "type": "tuple[]"
        }
      ],
      "stateMutability": "view",
      "type": "function"
    }
  ],
  "bytecode": "0x60a06040526114a2600360146101000a81548167ffffffffffffffff021916908367ffffffffffffffff1602179055507f4b09e658ed251bcafeebbc69400383d49f344ace09b9576fe248bb02c003fe9f60001b60065562061a80600760006101000a81548163ffffffff021916908363ffffffff1602179055506003600760046101000a81548161ffff021916908361ffff1602179055506001600760066101000a81548163ffffffff021916908363ffffffff160217905550348015620000c757600080fd5b5033806000737a1bac17ccc5b313516c5e16fb24f7659aa5ebed8073ffffffffffffffffffffffffffffffffffffffff1660808173ffffffffffffffffffffffffffffffffffffffff1660601b8152505050600073ffffffffffffffffffffffffffffffffffffffff168273ffffffffffffffffffffffffffffffffffffffff1614156200018c576040517f08c379a0000000000000000000000000000000000000000000000000000000008152600401620001839062000653565b60405180910390fd5b816000806101000a81548173ffffffffffffffffffffffffffffffffffffffff021916908373ffffffffffffffffffffffffffffffffffffffff160217905550600073ffffffffffffffffffffffffffffffffffffffff168173ffffffffffffffffffffffffffffffffffffffff1614620002135762000212816200040260201b60201c565b5b505050604051620002249062000532565b6200022f9062000675565b604051809103906000f0801580156200024c573d6000803e3d6000fd5b50600b60006101000a81548173ffffffffffffffffffffffffffffffffffffffff021916908373ffffffffffffffffffffffffffffffffffffffff160217905550600b60009054906101000a900473ffffffffffffffffffffffffffffffffffffffff16600c60006101000a81548173ffffffffffffffffffffffffffffffffffffffff021916908373ffffffffffffffffffffffffffffffffffffffff160217905550600b60009054906101000a900473ffffffffffffffffffffffffffffffffffffffff1673ffffffffffffffffffffffffffffffffffffffff1663a0712d68620f42406040518263ffffffff1660e01b815260040162000350919062000636565b602060405180830381600087803b1580156200036b57600080fd5b505af115801562000380573d6000803e3d6000fd5b505050506040513d601f19601f82011682018060405250810190620003a6919062000557565b50737a1bac17ccc5b313516c5e16fb24f7659aa5ebed600360006101000a81548173ffffffffffffffffffffffffffffffffffffffff021916908373ffffffffffffffffffffffffffffffffffffffff160217905550620007cc565b3373ffffffffffffffffffffffffffffffffffffffff168173ffffffffffffffffffffffffffffffffffffffff16141562000474576040517f08c379a00000000000000000000000000000000000000000000000000000000081526004016200046b90620006ac565b60405180910390fd5b80600160006101000a81548173ffffffffffffffffffffffffffffffffffffffff021916908373ffffffffffffffffffffffffffffffffffffffff1602179055508073ffffffffffffffffffffffffffffffffffffffff1660008054906101000a900473ffffffffffffffffffffffffffffffffffffffff1673ffffffffffffffffffffffffffffffffffffffff167fed8889f560326eb138920d842192f0eb3dd22b4f139c87a2c57538e05bae127860405160405180910390a350565b6112518062003ce383390190565b6000815190506200055181620007b2565b92915050565b60006020828403121562000570576200056f62000709565b5b6000620005808482850162000540565b91505092915050565b6200059481620006f5565b82525050565b6000620005a9601883620006ce565b9150620005b6826200070e565b602082019050919050565b6000620005d0600683620006ce565b9150620005dd8262000737565b602082019050919050565b6000620005f7600383620006ce565b9150620006048262000760565b602082019050919050565b60006200061e601783620006ce565b91506200062b8262000789565b602082019050919050565b60006020820190506200064d600083018462000589565b92915050565b600060208201905081810360008301526200066e816200059a565b9050919050565b600060408201905081810360008301526200069081620005c1565b90508181036020830152620006a581620005e8565b9050919050565b60006020820190508181036000830152620006c7816200060f565b9050919050565b600082825260208201905092915050565b60008115159050919050565b6000819050919050565b60006200070282620006eb565b9050919050565b600080fd5b7f43616e6e6f7420736574206f776e657220746f207a65726f0000000000000000600082015250565b7f436173696e6f0000000000000000000000000000000000000000000000000000600082015250565b7f4341530000000000000000000000000000000000000000000000000000000000600082015250565b7f43616e6e6f74207472616e7366657220746f2073656c66000000000000000000600082015250565b620007bd81620006df565b8114620007c957600080fd5b50565b60805160601c6134f1620007f26000396000818161057001526105c401526134f16000f3fe6080604052600436106101405760003560e01c80638c51fedb116100b6578063d8a4676f1161006f578063d8a4676f14610425578063df54096714610463578063eedc966a146104a0578063f2fde38b146104dd578063f71d96cb14610506578063fc2a88c31461054357610140565b80638c51fedb146103215780638da5cb5b1461034a5780639d76ea5814610375578063a168fa89146103a0578063b934c384146103de578063c29dd7c91461040957610140565b80634afe62b5116101085780634afe62b51461020c5780635f375c6c146102285780636b37d3621461026557806379ba5097146102905780638796ba8c146102a757806389a78f1a146102e457610140565b80631fe543e31461014557806321a104441461016e5780632e95161c146101975780633897b0bc146101b35780633b1b511d146101cf575b600080fd5b34801561015157600080fd5b5061016c600480360381019061016791906126ce565b61056e565b005b34801561017a57600080fd5b506101956004803603810190610190919061276a565b61062e565b005b6101b160048036038101906101ac9190612674565b610acd565b005b6101cd60048036038101906101c89190612674565b610d01565b005b3480156101db57600080fd5b506101f660048036038101906101f1919061261a565b610de7565b6040516102039190612dbc565b60405180910390f35b6102266004803603810190610221919061272a565b610dff565b005b34801561023457600080fd5b5061024f600480360381019061024a9190612674565b6110f2565b60405161025c9190612dbc565b60405180910390f35b34801561027157600080fd5b5061027a61110e565b6040516102879190612b2a565b60405180910390f35b34801561029c57600080fd5b506102a5611138565b005b3480156102b357600080fd5b506102ce60048036038101906102c99190612674565b6112cd565b6040516102db9190612dbc565b60405180910390f35b3480156102f057600080fd5b5061030b6004803603810190610306919061261a565b6112f1565b6040516103189190612dbc565b60405180910390f35b34801561032d57600080fd5b5061034860048036038101906103439190612674565b611309565b005b34801561035657600080fd5b5061035f6117af565b60405161036c9190612b2a565b60405180910390f35b34801561038157600080fd5b5061038a6117d8565b6040516103979190612b2a565b60405180910390f35b3480156103ac57600080fd5b506103c760048036038101906103c29190612674565b6117fe565b6040516103d5929190612bf7565b60405180910390f35b3480156103ea57600080fd5b506103f361183c565b6040516104009190612dbc565b60405180910390f35b610423600480360381019061041e9190612674565b611844565b005b34801561043157600080fd5b5061044c60048036038101906104479190612674565b611b0d565b60405161045a929190612bc7565b60405180910390f35b34801561046f57600080fd5b5061048a6004803603810190610485919061261a565b611c38565b6040516104979190612ba5565b60405180910390f35b3480156104ac57600080fd5b506104c760048036038101906104c2919061261a565b611d7c565b6040516104d49190612dbc565b60405180910390f35b3480156104e957600080fd5b5061050460048036038101906104ff919061261a565b611e30565b005b34801561051257600080fd5b5061052d60048036038101906105289190612674565b611e44565b60405161053a9190612b2a565b60405180910390f35b34801561054f57600080fd5b50610558611e83565b6040516105659190612dbc565b60405180910390f35b7f000000000000000000000000000000000000000000000000000000000000000073ffffffffffffffffffffffffffffffffffffffff163373ffffffffffffffffffffffffffffffffffffffff161461062057337f00000000000000000000000000000000000000000000000000000000000000006040517f1cf993f4000000000000000000000000000000000000000000000000000000008152600401610617929190612b45565b60405180910390fd5b61062a8282611e89565b5050565b600b60009054906101000a900473ffffffffffffffffffffffffffffffffffffffff1673ffffffffffffffffffffffffffffffffffffffff166370a08231336040518263ffffffff1660e01b81526004016106899190612b2a565b60206040518083038186803b1580156106a157600080fd5b505afa1580156106b5573d6000803e3d6000fd5b505050506040513d601f19601f820116820180604052508101906106d991906126a1565b8111156106e557600080fd5b600081116106f257600080fd5b6000600e426040516020016107079190612b0f565b6040516020818303038152906040528051906020012060001c61072a9190613152565b9050600080600b60009054906101000a900473ffffffffffffffffffffffffffffffffffffffff1673ffffffffffffffffffffffffffffffffffffffff1663beabacc83330876040518463ffffffff1660e01b815260040161078e93929190612b6e565b602060405180830381600087803b1580156107a857600080fd5b505af11580156107bc573d6000803e3d6000fd5b505050506040513d601f19601f820116820180604052508101906107e09190612647565b508483111580156107f15750858310155b15610a495760019050600083141561081757600e846108109190612f57565b9150610827565b6002846108249190612f57565b91505b81600b60009054906101000a900473ffffffffffffffffffffffffffffffffffffffff1673ffffffffffffffffffffffffffffffffffffffff166370a08231306040518263ffffffff1660e01b81526004016108839190612b2a565b60206040518083038186803b15801561089b57600080fd5b505afa1580156108af573d6000803e3d6000fd5b505050506040513d601f19601f820116820180604052508101906108d391906126a1565b101561099657600b60009054906101000a900473ffffffffffffffffffffffffffffffffffffffff1673ffffffffffffffffffffffffffffffffffffffff1663a0712d68620186a0846109269190612f57565b6040518263ffffffff1660e01b81526004016109429190612dbc565b602060405180830381600087803b15801561095c57600080fd5b505af1158015610970573d6000803e3d6000fd5b505050506040513d601f19601f820116820180604052508101906109949190612647565b505b600b60009054906101000a900473ffffffffffffffffffffffffffffffffffffffff1673ffffffffffffffffffffffffffffffffffffffff1663beabacc83033856040518463ffffffff1660e01b81526004016109f593929190612b6e565b602060405180830381600087803b158015610a0f57600080fd5b505af1158015610a23573d6000803e3d6000fd5b505050506040513d601f19601f82011682018060405250810190610a479190612647565b505b610a8a6040518060400160405280600781526020017f526f756c65746500000000000000000000000000000000000000000000000000815250858433611f83565b7fd25d6b7f2fbc40564b21f40e1d506ff3d5276071da39d3def6b88f6ee8a39659838284604051610abd93929190612e07565b60405180910390a1505050505050565b60008111610b10576040517f08c379a0000000000000000000000000000000000000000000000000000000008152600401610b0790612cfc565b60405180910390fd5b600b60009054906101000a900473ffffffffffffffffffffffffffffffffffffffff1673ffffffffffffffffffffffffffffffffffffffff166370a08231336040518263ffffffff1660e01b8152600401610b6b9190612b2a565b60206040518083038186803b158015610b8357600080fd5b505afa158015610b97573d6000803e3d6000fd5b505050506040513d601f19601f82011682018060405250810190610bbb91906126a1565b811115610bfd576040517f08c379a0000000000000000000000000000000000000000000000000000000008152600401610bf490612d7c565b60405180910390fd5b600b60009054906101000a900473ffffffffffffffffffffffffffffffffffffffff1673ffffffffffffffffffffffffffffffffffffffff1663beabacc83330846040518463ffffffff1660e01b8152600401610c5c93929190612b6e565b602060405180830381600087803b158015610c7657600080fd5b505af1158015610c8a573d6000803e3d6000fd5b505050506040513d601f19601f82011682018060405250810190610cae9190612647565b503373ffffffffffffffffffffffffffffffffffffffff166108fc610cd2836110f2565b9081150290604051600060405180830381858888f19350505050158015610cfd573d6000803e3d6000fd5b5050565b610d09612045565b60008111610d4c576040517f08c379a0000000000000000000000000000000000000000000000000000000008152600401610d4390612cfc565b60405180910390fd5b610d5461183c565b811115610d96576040517f08c379a0000000000000000000000000000000000000000000000000000000008152600401610d8d90612d7c565b60405180910390fd5b610d9e6117af565b73ffffffffffffffffffffffffffffffffffffffff166108fc829081150290604051600060405180830381858888f19350505050158015610de3573d6000803e3d6000fd5b5050565b60096020528060005260406000206000915090505481565b600b60009054906101000a900473ffffffffffffffffffffffffffffffffffffffff1673ffffffffffffffffffffffffffffffffffffffff166370a08231336040518263ffffffff1660e01b8152600401610e5a9190612b2a565b60206040518083038186803b158015610e7257600080fd5b505afa158015610e86573d6000803e3d6000fd5b505050506040513d601f19601f82011682018060405250810190610eaa91906126a1565b811115610eb657600080fd5b60008111610ef9576040517f08c379a0000000000000000000000000000000000000000000000000000000008152600401610ef090612d5c565b60405180910390fd5b80600860003373ffffffffffffffffffffffffffffffffffffffff1673ffffffffffffffffffffffffffffffffffffffff1681526020019081526020016000208190555081600960003373ffffffffffffffffffffffffffffffffffffffff1673ffffffffffffffffffffffffffffffffffffffff16815260200190815260200160002081905550600b60009054906101000a900473ffffffffffffffffffffffffffffffffffffffff1673ffffffffffffffffffffffffffffffffffffffff1663beabacc83330846040518463ffffffff1660e01b8152600401610fe093929190612b6e565b602060405180830381600087803b158015610ffa57600080fd5b505af115801561100e573d6000803e3d6000fd5b505050506040513d601f19601f820116820180604052508101906110329190612647565b50600a339080600181540180825580915050600190039060005260206000200160009091909190916101000a81548173ffffffffffffffffffffffffffffffffffffffff021916908373ffffffffffffffffffffffffffffffffffffffff16021790555060006110a06120d5565b90507fcc58b13ad3eab50626c6a6300b1d139cd6ebb1688a7cced9461c2f7e762665ee81600760069054906101000a900463ffffffff166040516110e5929190612e3e565b60405180910390a1505050565b600066038d7ea4c68000826111079190612f57565b9050919050565b6000600b60009054906101000a900473ffffffffffffffffffffffffffffffffffffffff16905090565b600160009054906101000a900473ffffffffffffffffffffffffffffffffffffffff1673ffffffffffffffffffffffffffffffffffffffff163373ffffffffffffffffffffffffffffffffffffffff16146111c8576040517f08c379a00000000000000000000000000000000000000000000000000000000081526004016111bf90612cbc565b60405180910390fd5b60008060009054906101000a900473ffffffffffffffffffffffffffffffffffffffff169050336000806101000a81548173ffffffffffffffffffffffffffffffffffffffff021916908373ffffffffffffffffffffffffffffffffffffffff1602179055506000600160006101000a81548173ffffffffffffffffffffffffffffffffffffffff021916908373ffffffffffffffffffffffffffffffffffffffff1602179055503373ffffffffffffffffffffffffffffffffffffffff168173ffffffffffffffffffffffffffffffffffffffff167f8be0079c531659141344cd1fd0a4f28419497f9722a3daafe3b4186f6b6457e060405160405180910390a350565b600481815481106112dd57600080fd5b906000526020600020016000915090505481565b60086020528060005260406000206000915090505481565b6002600082815260200190815260200160002060000160019054906101000a900460ff1661136c576040517f08c379a000000000000000000000000000000000000000000000000000000000815260040161136390612c9c565b60405180910390fd5b6002600082815260200190815260200160002060000160009054906101000a900460ff166113cf576040517f08c379a00000000000000000000000000000000000000000000000000000000081526004016113c690612d9c565b60405180910390fd5b60006002600083815260200190815260200160002060010180548060200260200160405190810160405280929190818152602001828054801561143157602002820191906000526020600020905b81548152602001906001019080831161141d575b5050505050905060008060028360008151811061145157611450613210565b5b60200260200101516114639190613152565b1461146f576000611472565b60015b60ff16905060005b600a8054905081101561179b576000600a828154811061149d5761149c613210565b5b9060005260206000200160009054906101000a900473ffffffffffffffffffffffffffffffffffffffff1690506000600960008373ffffffffffffffffffffffffffffffffffffffff1673ffffffffffffffffffffffffffffffffffffffff1681526020019081526020016000205490508381141561166f5760006002600860008573ffffffffffffffffffffffffffffffffffffffff1673ffffffffffffffffffffffffffffffffffffffff168152602001908152602001600020546115649190612f57565b90508273ffffffffffffffffffffffffffffffffffffffff167f917ed633130aae9351fcee877554607b5d2fa7a5c78c8f8c194b653d362aae226001836040516115af929190612c20565b60405180910390a2600b60009054906101000a900473ffffffffffffffffffffffffffffffffffffffff1673ffffffffffffffffffffffffffffffffffffffff1663beabacc83085846040518463ffffffff1660e01b815260040161161693929190612b6e565b602060405180830381600087803b15801561163057600080fd5b505af1158015611644573d6000803e3d6000fd5b505050506040513d601f19601f820116820180604052508101906116689190612647565b5050611700565b8173ffffffffffffffffffffffffffffffffffffffff167f917ed633130aae9351fcee877554607b5d2fa7a5c78c8f8c194b653d362aae226000600860008673ffffffffffffffffffffffffffffffffffffffff1673ffffffffffffffffffffffffffffffffffffffff168152602001908152602001600020546040516116f7929190612c20565b60405180910390a25b600860008373ffffffffffffffffffffffffffffffffffffffff1673ffffffffffffffffffffffffffffffffffffffff16815260200190815260200160002060009055600960008373ffffffffffffffffffffffffffffffffffffffff1673ffffffffffffffffffffffffffffffffffffffff1681526020019081526020016000206000905550508080611793906130ff565b91505061147a565b50600a60006117aa9190612417565b505050565b60008060009054906101000a900473ffffffffffffffffffffffffffffffffffffffff16905090565b600c60009054906101000a900473ffffffffffffffffffffffffffffffffffffffff1681565b60026020528060005260406000206000915090508060000160009054906101000a900460ff16908060000160019054906101000a900460ff16905082565b600047905090565b61184d816110f2565b34101561188f576040517f08c379a000000000000000000000000000000000000000000000000000000000815260040161188690612d3c565b60405180910390fd5b80600b60009054906101000a900473ffffffffffffffffffffffffffffffffffffffff1673ffffffffffffffffffffffffffffffffffffffff166370a08231306040518263ffffffff1660e01b81526004016118eb9190612b2a565b60206040518083038186803b15801561190357600080fd5b505afa158015611917573d6000803e3d6000fd5b505050506040513d601f19601f8201168201806040525081019061193b91906126a1565b10156119fe57600b60009054906101000a900473ffffffffffffffffffffffffffffffffffffffff1673ffffffffffffffffffffffffffffffffffffffff1663a0712d68620186a08361198e9190612f57565b6040518263ffffffff1660e01b81526004016119aa9190612dbc565b602060405180830381600087803b1580156119c457600080fd5b505af11580156119d8573d6000803e3d6000fd5b505050506040513d601f19601f820116820180604052508101906119fc9190612647565b505b3373ffffffffffffffffffffffffffffffffffffffff166108fc611a21836110f2565b34611a2c9190612fb1565b9081150290604051600060405180830381858888f19350505050158015611a57573d6000803e3d6000fd5b50600b60009054906101000a900473ffffffffffffffffffffffffffffffffffffffff1673ffffffffffffffffffffffffffffffffffffffff1663beabacc83033846040518463ffffffff1660e01b8152600401611ab793929190612b6e565b602060405180830381600087803b158015611ad157600080fd5b505af1158015611ae5573d6000803e3d6000fd5b505050506040513d601f19601f82011682018060405250810190611b099190612647565b5050565b600060606002600084815260200190815260200160002060000160019054906101000a900460ff16611b74576040517f08c379a0000000000000000000000000000000000000000000000000000000008152600401611b6b90612c9c565b60405180910390fd5b6000600260008581526020019081526020016000206040518060600160405290816000820160009054906101000a900460ff161515151581526020016000820160019054906101000a900460ff1615151515815260200160018201805480602002602001604051908101604052809291908181526020018280548015611c1957602002820191906000526020600020905b815481526020019060010190808311611c05575b5050505050815250509050806000015181604001519250925050915091565b6060600d60008373ffffffffffffffffffffffffffffffffffffffff1673ffffffffffffffffffffffffffffffffffffffff168152602001908152602001600020805480602002602001604051908101604052809291908181526020016000905b82821015611d7157838290600052602060002090600302016040518060600160405290816000820154815260200160018201548152602001600282018054611ce09061309c565b80601f0160208091040260200160405190810160405280929190818152602001828054611d0c9061309c565b8015611d595780601f10611d2e57610100808354040283529160200191611d59565b820191906000526020600020905b815481529060010190602001808311611d3c57829003601f168201915b50505050508152505081526020019060010190611c99565b505050509050919050565b6000600b60009054906101000a900473ffffffffffffffffffffffffffffffffffffffff1673ffffffffffffffffffffffffffffffffffffffff166370a08231836040518263ffffffff1660e01b8152600401611dd99190612b2a565b60206040518083038186803b158015611df157600080fd5b505afa158015611e05573d6000803e3d6000fd5b505050506040513d601f19601f82011682018060405250810190611e2991906126a1565b9050919050565b611e38612045565b611e41816122ea565b50565b600a8181548110611e5457600080fd5b906000526020600020016000915054906101000a900473ffffffffffffffffffffffffffffffffffffffff1681565b60055481565b6002600083815260200190815260200160002060000160019054906101000a900460ff16611eec576040517f08c379a0000000000000000000000000000000000000000000000000000000008152600401611ee390612c9c565b60405180910390fd5b60016002600084815260200190815260200160002060000160006101000a81548160ff02191690831515021790555080600260008481526020019081526020016000206001019080519060200190611f45929190612438565b507ffe2e2d779dba245964d4e3ef9b994be63856fd568bf7d3ca9e224755cb1bd54d8282604051611f77929190612dd7565b60405180910390a15050565b60006040518060600160405280858152602001848152602001868152509050600d60008373ffffffffffffffffffffffffffffffffffffffff1673ffffffffffffffffffffffffffffffffffffffff1681526020019081526020016000208190806001815401808255809150506001900390600052602060002090600302016000909190919091506000820151816000015560208201518160010155604082015181600201908051906020019061203b929190612485565b5050505050505050565b60008054906101000a900473ffffffffffffffffffffffffffffffffffffffff1673ffffffffffffffffffffffffffffffffffffffff163373ffffffffffffffffffffffffffffffffffffffff16146120d3576040517f08c379a00000000000000000000000000000000000000000000000000000000081526004016120ca90612cdc565b60405180910390fd5b565b6000600360009054906101000a900473ffffffffffffffffffffffffffffffffffffffff1673ffffffffffffffffffffffffffffffffffffffff16635d3b1d30600654600360149054906101000a900467ffffffffffffffff16600760049054906101000a900461ffff16600760009054906101000a900463ffffffff16600760069054906101000a900463ffffffff166040518663ffffffff1660e01b8152600401612186959493929190612c49565b602060405180830381600087803b1580156121a057600080fd5b505af11580156121b4573d6000803e3d6000fd5b505050506040513d601f19601f820116820180604052508101906121d891906126a1565b90506040518060600160405280600015158152602001600115158152602001600067ffffffffffffffff8111156122125761221161323f565b5b6040519080825280602002602001820160405280156122405781602001602082028036833780820191505090505b508152506002600083815260200190815260200160002060008201518160000160006101000a81548160ff02191690831515021790555060208201518160000160016101000a81548160ff02191690831515021790555060408201518160010190805190602001906122b3929190612438565b5090505060048190806001815401808255809150506001900390600052602060002001600090919091909150558060058190555090565b3373ffffffffffffffffffffffffffffffffffffffff168173ffffffffffffffffffffffffffffffffffffffff161415612359576040517f08c379a000000000000000000000000000000000000000000000000000000000815260040161235090612d1c565b60405180910390fd5b80600160006101000a81548173ffffffffffffffffffffffffffffffffffffffff021916908373ffffffffffffffffffffffffffffffffffffffff1602179055508073ffffffffffffffffffffffffffffffffffffffff1660008054906101000a900473ffffffffffffffffffffffffffffffffffffffff1673ffffffffffffffffffffffffffffffffffffffff167fed8889f560326eb138920d842192f0eb3dd22b4f139c87a2c57538e05bae127860405160405180910390a350565b5080546000825590600052602060002090810190612435919061250b565b50565b828054828255906000526020600020908101928215612474579160200282015b82811115612473578251825591602001919060010190612458565b5b509050612481919061250b565b5090565b8280546124919061309c565b90600052602060002090601f0160209004810192826124b357600085556124fa565b82601f106124cc57805160ff19168380011785556124fa565b828001600101855582156124fa579182015b828111156124f95782518255916020019190600101906124de565b5b509050612507919061250b565b5090565b5b8082111561252457600081600090555060010161250c565b5090565b600061253b61253684612e8c565b612e67565b9050808382526020820190508285602086028201111561255e5761255d613273565b5b60005b8581101561258e578161257488826125f0565b845260208401935060208301925050600181019050612561565b5050509392505050565b6000813590506125a781613476565b92915050565b600082601f8301126125c2576125c161326e565b5b81356125d2848260208601612528565b91505092915050565b6000815190506125ea8161348d565b92915050565b6000813590506125ff816134a4565b92915050565b600081519050612614816134a4565b92915050565b6000602082840312156126305761262f61327d565b5b600061263e84828501612598565b91505092915050565b60006020828403121561265d5761265c61327d565b5b600061266b848285016125db565b91505092915050565b60006020828403121561268a5761268961327d565b5b6000612698848285016125f0565b91505092915050565b6000602082840312156126b7576126b661327d565b5b60006126c584828501612605565b91505092915050565b600080604083850312156126e5576126e461327d565b5b60006126f3858286016125f0565b925050602083013567ffffffffffffffff81111561271457612713613278565b5b612720858286016125ad565b9150509250929050565b600080604083850312156127415761274061327d565b5b600061274f858286016125f0565b9250506020612760858286016125f0565b9150509250929050565b6000806000606084860312156127835761278261327d565b5b6000612791868287016125f0565b93505060206127a2868287016125f0565b92505060406127b3868287016125f0565b9150509250925092565b60006127c98383612a5d565b905092915050565b60006127dd8383612abc565b60208301905092915050565b6127f281612fe5565b82525050565b600061280382612ed8565b61280d8185612f13565b93508360208202850161281f85612eb8565b8060005b8581101561285b578484038952815161283c85826127bd565b945061284783612ef9565b925060208a01995050600181019050612823565b50829750879550505050505092915050565b600061287882612ee3565b6128828185612f24565b935061288d83612ec8565b8060005b838110156128be5781516128a588826127d1565b97506128b083612f06565b925050600181019050612891565b5085935050505092915050565b6128d481612ff7565b82525050565b6128e381613003565b82525050565b60006128f482612eee565b6128fe8185612f35565b935061290e818560208601613069565b61291781613282565b840191505092915050565b600061292f601183612f46565b915061293a82613293565b602082019050919050565b6000612952601683612f46565b915061295d826132bc565b602082019050919050565b6000612975601683612f46565b9150612980826132e5565b602082019050919050565b6000612998603083612f46565b91506129a38261330e565b604082019050919050565b60006129bb601783612f46565b91506129c68261335d565b602082019050919050565b60006129de602983612f46565b91506129e982613386565b604082019050919050565b6000612a01601283612f46565b9150612a0c826133d5565b602082019050919050565b6000612a24602883612f46565b9150612a2f826133fe565b604082019050919050565b6000612a47601583612f46565b9150612a528261344d565b602082019050919050565b6000606083016000830151612a756000860182612abc565b506020830151612a886020860182612abc565b5060408301518482036040860152612aa082826128e9565b9150508091505092915050565b612ab68161300d565b82525050565b612ac58161303b565b82525050565b612ad48161303b565b82525050565b612aeb612ae68261303b565b613148565b82525050565b612afa81613045565b82525050565b612b0981613055565b82525050565b6000612b1b8284612ada565b60208201915081905092915050565b6000602082019050612b3f60008301846127e9565b92915050565b6000604082019050612b5a60008301856127e9565b612b6760208301846127e9565b9392505050565b6000606082019050612b8360008301866127e9565b612b9060208301856127e9565b612b9d6040830184612acb565b949350505050565b60006020820190508181036000830152612bbf81846127f8565b905092915050565b6000604082019050612bdc60008301856128cb565b8181036020830152612bee818461286d565b90509392505050565b6000604082019050612c0c60008301856128cb565b612c1960208301846128cb565b9392505050565b6000604082019050612c3560008301856128cb565b612c426020830184612acb565b9392505050565b600060a082019050612c5e60008301886128da565b612c6b6020830187612b00565b612c786040830186612aad565b612c856060830185612af1565b612c926080830184612af1565b9695505050505050565b60006020820190508181036000830152612cb581612922565b9050919050565b60006020820190508181036000830152612cd581612945565b9050919050565b60006020820190508181036000830152612cf581612968565b9050919050565b60006020820190508181036000830152612d158161298b565b9050919050565b60006020820190508181036000830152612d35816129ae565b9050919050565b60006020820190508181036000830152612d55816129d1565b9050919050565b60006020820190508181036000830152612d75816129f4565b9050919050565b60006020820190508181036000830152612d9581612a17565b9050919050565b60006020820190508181036000830152612db581612a3a565b9050919050565b6000602082019050612dd16000830184612acb565b92915050565b6000604082019050612dec6000830185612acb565b8181036020830152612dfe818461286d565b90509392505050565b6000606082019050612e1c6000830186612acb565b612e2960208301856128cb565b612e366040830184612acb565b949350505050565b6000604082019050612e536000830185612acb565b612e606020830184612af1565b9392505050565b6000612e71612e82565b9050612e7d82826130ce565b919050565b6000604051905090565b600067ffffffffffffffff821115612ea757612ea661323f565b5b602082029050602081019050919050565b6000819050602082019050919050565b6000819050602082019050919050565b600081519050919050565b600081519050919050565b600081519050919050565b6000602082019050919050565b6000602082019050919050565b600082825260208201905092915050565b600082825260208201905092915050565b600082825260208201905092915050565b600082825260208201905092915050565b6000612f628261303b565b9150612f6d8361303b565b9250817fffffffffffffffffffffffffffffffffffffffffffffffffffffffffffffffff0483118215151615612fa657612fa5613183565b5b828202905092915050565b6000612fbc8261303b565b9150612fc78361303b565b925082821015612fda57612fd9613183565b5b828203905092915050565b6000612ff08261301b565b9050919050565b60008115159050919050565b6000819050919050565b600061ffff82169050919050565b600073ffffffffffffffffffffffffffffffffffffffff82169050919050565b6000819050919050565b600063ffffffff82169050919050565b600067ffffffffffffffff82169050919050565b60005b8381101561308757808201518184015260208101905061306c565b83811115613096576000848401525b50505050565b600060028204905060018216806130b457607f821691505b602082108114156130c8576130c76131e1565b5b50919050565b6130d782613282565b810181811067ffffffffffffffff821117156130f6576130f561323f565b5b80604052505050565b600061310a8261303b565b91507fffffffffffffffffffffffffffffffffffffffffffffffffffffffffffffffff82141561313d5761313c613183565b5b600182019050919050565b6000819050919050565b600061315d8261303b565b91506131688361303b565b925082613178576131776131b2565b5b828206905092915050565b7f4e487b7100000000000000000000000000000000000000000000000000000000600052601160045260246000fd5b7f4e487b7100000000000000000000000000000000000000000000000000000000600052601260045260246000fd5b7f4e487b7100000000000000000000000000000000000000000000000000000000600052602260045260246000fd5b7f4e487b7100000000000000000000000000000000000000000000000000000000600052603260045260246000fd5b7f4e487b7100000000000000000000000000000000000000000000000000000000600052604160045260246000fd5b600080fd5b600080fd5b600080fd5b600080fd5b6000601f19601f8301169050919050565b7f72657175657374206e6f7420666f756e64000000000000000000000000000000600082015250565b7f4d7573742062652070726f706f736564206f776e657200000000000000000000600082015250565b7f4f6e6c792063616c6c61626c65206279206f776e657200000000000000000000600082015250565b7f4e6563657369746173206465766f6c76657220756e206e756d65726f2064652060008201527f746f6b656e73206d61796f722061203000000000000000000000000000000000602082015250565b7f43616e6e6f74207472616e7366657220746f2073656c66000000000000000000600082015250565b7f436f6d707261206d656e6f7320746f6b656e73206f207061676120636f6e206d60008201527f6173206574686572730000000000000000000000000000000000000000000000602082015250565b7f416c726561647920706c61636564206265740000000000000000000000000000600082015250565b7f4e6f207469656e6573206c6f7320746f6b656e7320717565206465736561732060008201527f6465766f6c766572000000000000000000000000000000000000000000000000602082015250565b7f72657175657374206e6f742066756c66696c6c65640000000000000000000000600082015250565b61347f81612fe5565b811461348a57600080fd5b50565b61349681612ff7565b81146134a157600080fd5b50565b6134ad8161303b565b81146134b857600080fd5b5056fea2646970667358221220374d24414c7566a72ddfb184a285a8dcbe9f7c1138064ef1753a205255977c3c64736f6c6343000807003360806040523480156200001157600080fd5b5060405162001251380380620012518339818101604052810190620000379190620001e0565b81600290805190602001906200004f929190620000b2565b50806003908051906020019062000068929190620000b2565b5033600460006101000a81548173ffffffffffffffffffffffffffffffffffffffff021916908373ffffffffffffffffffffffffffffffffffffffff1602179055505050620003e9565b828054620000c090620002fa565b90600052602060002090601f016020900481019282620000e4576000855562000130565b82601f10620000ff57805160ff191683800117855562000130565b8280016001018555821562000130579182015b828111156200012f57825182559160200191906001019062000112565b5b5090506200013f919062000143565b5090565b5b808211156200015e57600081600090555060010162000144565b5090565b60006200017962000173846200028e565b62000265565b905082815260208101848484011115620001985762000197620003c9565b5b620001a5848285620002c4565b509392505050565b600082601f830112620001c557620001c4620003c4565b5b8151620001d784826020860162000162565b91505092915050565b60008060408385031215620001fa57620001f9620003d3565b5b600083015167ffffffffffffffff8111156200021b576200021a620003ce565b5b6200022985828601620001ad565b925050602083015167ffffffffffffffff8111156200024d576200024c620003ce565b5b6200025b85828601620001ad565b9150509250929050565b60006200027162000284565b90506200027f828262000330565b919050565b6000604051905090565b600067ffffffffffffffff821115620002ac57620002ab62000395565b5b620002b782620003d8565b9050602081019050919050565b60005b83811015620002e4578082015181840152602081019050620002c7565b83811115620002f4576000848401525b50505050565b600060028204905060018216806200031357607f821691505b602082108114156200032a576200032962000366565b5b50919050565b6200033b82620003d8565b810181811067ffffffffffffffff821117156200035d576200035c62000395565b5b80604052505050565b7f4e487b7100000000000000000000000000000000000000000000000000000000600052602260045260246000fd5b7f4e487b7100000000000000000000000000000000000000000000000000000000600052604160045260246000fd5b600080fd5b600080fd5b600080fd5b600080fd5b6000601f19601f8301169050919050565b610e5880620003f96000396000f3fe608060405234801561001057600080fd5b50600436106100885760003560e01c80638da5cb5b1161005b5780638da5cb5b1461011757806395d89b4114610135578063a0712d6814610153578063beabacc81461018357610088565b806306fdde031461008d57806318160ddd146100ab578063313ce567146100c957806370a08231146100e7575b600080fd5b6100956101b3565b6040516100a291906109f7565b60405180910390f35b6100b3610245565b6040516100c09190610ab9565b60405180910390f35b6100d161024f565b6040516100de9190610ad4565b60405180910390f35b61010160048036038101906100fc91906107f0565b610254565b60405161010e9190610ab9565b60405180910390f35b61011f61029c565b60405161012c91906109c1565b60405180910390f35b61013d6102c2565b60405161014a91906109f7565b60405180910390f35b61016d60048036038101906101689190610870565b610354565b60405161017a91906109dc565b60405180910390f35b61019d6004803603810190610198919061081d565b6103fb565b6040516101aa91906109dc565b60405180910390f35b6060600280546101c290610be9565b80601f01602080910402602001604051908101604052809291908181526020018280546101ee90610be9565b801561023b5780601f106102105761010080835404028352916020019161023b565b820191906000526020600020905b81548152906001019060200180831161021e57829003601f168201915b5050505050905090565b6000600154905090565b600090565b60008060008373ffffffffffffffffffffffffffffffffffffffff1673ffffffffffffffffffffffffffffffffffffffff168152602001908152602001600020549050919050565b600460009054906101000a900473ffffffffffffffffffffffffffffffffffffffff1681565b6060600380546102d190610be9565b80601f01602080910402602001604051908101604052809291908181526020018280546102fd90610be9565b801561034a5780601f1061031f5761010080835404028352916020019161034a565b820191906000526020600020905b81548152906001019060200180831161032d57829003601f168201915b5050505050905090565b600033600460009054906101000a900473ffffffffffffffffffffffffffffffffffffffff1673ffffffffffffffffffffffffffffffffffffffff168173ffffffffffffffffffffffffffffffffffffffff16146103e7576040517f08c379a00000000000000000000000000000000000000000000000000000000081526004016103de90610a59565b60405180910390fd5b6103f13384610413565b6001915050919050565b600061040884848461055b565b600190509392505050565b600073ffffffffffffffffffffffffffffffffffffffff168273ffffffffffffffffffffffffffffffffffffffff161415610483576040517f08c379a000000000000000000000000000000000000000000000000000000000815260040161047a90610a99565b60405180910390fd5b80600160008282546104959190610b0b565b92505081905550806000808473ffffffffffffffffffffffffffffffffffffffff1673ffffffffffffffffffffffffffffffffffffffff16815260200190815260200160002060008282546104ea9190610b0b565b925050819055508173ffffffffffffffffffffffffffffffffffffffff16600073ffffffffffffffffffffffffffffffffffffffff167fddf252ad1be2c89b69c2b068fc378daa952ba7f163c4a11628f55a4df523b3ef8360405161054f9190610ab9565b60405180910390a35050565b600073ffffffffffffffffffffffffffffffffffffffff168373ffffffffffffffffffffffffffffffffffffffff1614156105cb576040517f08c379a00000000000000000000000000000000000000000000000000000000081526004016105c290610a79565b60405180910390fd5b600073ffffffffffffffffffffffffffffffffffffffff168273ffffffffffffffffffffffffffffffffffffffff16141561063b576040517f08c379a000000000000000000000000000000000000000000000000000000000815260040161063290610a19565b60405180910390fd5b60008060008573ffffffffffffffffffffffffffffffffffffffff1673ffffffffffffffffffffffffffffffffffffffff168152602001908152602001600020549050818110156106c1576040517f08c379a00000000000000000000000000000000000000000000000000000000081526004016106b890610a39565b60405180910390fd5b8181036000808673ffffffffffffffffffffffffffffffffffffffff1673ffffffffffffffffffffffffffffffffffffffff16815260200190815260200160002081905550816000808573ffffffffffffffffffffffffffffffffffffffff1673ffffffffffffffffffffffffffffffffffffffff16815260200190815260200160002060008282546107549190610b0b565b925050819055508273ffffffffffffffffffffffffffffffffffffffff168473ffffffffffffffffffffffffffffffffffffffff167fddf252ad1be2c89b69c2b068fc378daa952ba7f163c4a11628f55a4df523b3ef846040516107b89190610ab9565b60405180910390a350505050565b6000813590506107d581610df4565b92915050565b6000813590506107ea81610e0b565b92915050565b60006020828403121561080657610805610c79565b5b6000610814848285016107c6565b91505092915050565b60008060006060848603121561083657610835610c79565b5b6000610844868287016107c6565b9350506020610855868287016107c6565b9250506040610866868287016107db565b9150509250925092565b60006020828403121561088657610885610c79565b5b6000610894848285016107db565b91505092915050565b6108a681610b61565b82525050565b6108b581610b73565b82525050565b60006108c682610aef565b6108d08185610afa565b93506108e0818560208601610bb6565b6108e981610c7e565b840191505092915050565b6000610901602383610afa565b915061090c82610c8f565b604082019050919050565b6000610924602683610afa565b915061092f82610cde565b604082019050919050565b6000610947602e83610afa565b915061095282610d2d565b604082019050919050565b600061096a602583610afa565b915061097582610d7c565b604082019050919050565b600061098d601f83610afa565b915061099882610dcb565b602082019050919050565b6109ac81610b9f565b82525050565b6109bb81610ba9565b82525050565b60006020820190506109d6600083018461089d565b92915050565b60006020820190506109f160008301846108ac565b92915050565b60006020820190508181036000830152610a1181846108bb565b905092915050565b60006020820190508181036000830152610a32816108f4565b9050919050565b60006020820190508181036000830152610a5281610917565b9050919050565b60006020820190508181036000830152610a728161093a565b9050919050565b60006020820190508181036000830152610a928161095d565b9050919050565b60006020820190508181036000830152610ab281610980565b9050919050565b6000602082019050610ace60008301846109a3565b92915050565b6000602082019050610ae960008301846109b2565b92915050565b600081519050919050565b600082825260208201905092915050565b6000610b1682610b9f565b9150610b2183610b9f565b9250827fffffffffffffffffffffffffffffffffffffffffffffffffffffffffffffffff03821115610b5657610b55610c1b565b5b828201905092915050565b6000610b6c82610b7f565b9050919050565b60008115159050919050565b600073ffffffffffffffffffffffffffffffffffffffff82169050919050565b6000819050919050565b600060ff82169050919050565b60005b83811015610bd4578082015181840152602081019050610bb9565b83811115610be3576000848401525b50505050565b60006002820490506001821680610c0157607f821691505b60208210811415610c1557610c14610c4a565b5b50919050565b7f4e487b7100000000000000000000000000000000000000000000000000000000600052601160045260246000fd5b7f4e487b7100000000000000000000000000000000000000000000000000000000600052602260045260246000fd5b600080fd5b6000601f19601f8301169050919050565b7f45524332303a207472616e7366657220746f20746865207a65726f206164647260008201527f6573730000000000000000000000000000000000000000000000000000000000602082015250565b7f45524332303a207472616e7366657220616d6f756e742065786365656473206260008201527f616c616e63650000000000000000000000000000000000000000000000000000602082015250565b7f4e6f207469656e6573207065726d69736f73207061726120656a65637574617260008201527f20657374612066756e63696f6e2e000000000000000000000000000000000000602082015250565b7f45524332303a207472616e736665722066726f6d20746865207a65726f20616460008201527f6472657373000000000000000000000000000000000000000000000000000000602082015250565b7f45524332303a206d696e7420746f20746865207a65726f206164647265737300600082015250565b610dfd81610b61565b8114610e0857600080fd5b50565b610e1481610b9f565b8114610e1f57600080fd5b5056fea2646970667358221220564ee57e05b593b5f7a476ae0b15d8c62075d8bf6c8549ffd39a2088c31eb0e064736f6c63430008070033",
  "linkReferences": {},
  "deployedLinkReferences": {}
}